:100000000C9427020C9458020C9458020C94580239
:100010000C9458020C9458020C9458020C945802F8
:100020000C9458020C9458020C9458020C945802E8
:100030000C9458020C9458020C9458020C945802D8
:100040000C9458020C94B3130C9458020C9458025C
:100050000C9458020C9458020C9458020C94E5111C
:100060000C9458020C9459120C942F120C945802B0
:100070000C9458020C9458020C9458020C94580298
:100080000C9458020C9458020C9458020C94580288
:100090000C9458020C9458020C9458020C948F1231
:1000A0000C9458020C9458020C9458020C94580268
:1000B0000C9458020C9458020C9458020C94580258
:1000C0000C9458020C9458020C9458020C94580248
:1000D0000C9458020C9458020C9458020C94580238
:1000E0000C9458020C94FA050C9416040C94D1024A
:1000F0000C94C70B0C94D8050C94D7020C948F0B5E
:100100000C94AA020C9422040C94B9020C94D3040B
:100110000C9479040C94DF020C94E9020C94080C02
:100120000C94FC030C948D040C94B6020C94F9030B
:100130000C94990B0C94FE0B0C94F5030C94E705AE
:100140000C94B50B0C941A040C94CD020C94E4029C
:100150000C94D7050C94DB020C94771B0C940106CD
:100160000C94D10B0C94BF020C94120C0C949B04B5
:100170000C9424040C9488090C94C3020C9423045A
:100180000C94A4020C945D060C94C9020C94A30B6D
:100190000C942D0A0C94DB0B0C94B2020C945803B3
:1001A0000C94240B0C942E060C9400040C94BD0BA0
:1001B0000C9444030C948A0B0C9409040C94F40BD7
:1001C0000C94AE020C94DC0E0C94E5020C94EA0B39
:1001D0000C945B160C941F040C946A040C94810B11
:1001E0000C941D040C941C0C0C9420050C940D0410
:1001F0000C94AD0B4E414E494E495459494E46CD93
:10020000CCCC3D0AD7233C17B7D13877CC2B3295CD
:1002100095E6241FB14F0A000020410000C84200AB
:10022000401C4620BCBE4CCA1B0E5AAEC59D740075
:10023000407A10F35A00A0724E18090010A5D4E8B5
:100240000000E87648170000E40B54020000CA9A48
:100250003B000000E1F5050000809698000000409A
:10026000420F000000A086010000001027000000DF
:1002700000E803000000006400000000000A000025
:100280000000000100000000002C76D888DC674FD9
:100290000823DFC1DFAE59E1B1B796E5E3E453C609
:1002A0003AE651997696E8E6C28426EB898C9B6201
:1002B000ED407C6FFCEFBC9C9F40F2BAA56FA5F4AB
:1002C00090055A2AF75C936B6CF9676DC11BFCE0D3
:1002D000E40D47FEF520E6B500D0ED902E03009426
:1002E0003577050080841E080000204E0A000000BB
:1002F000C80C333333330F986E12831141EF8D21C5
:1003000014893BE65516CFFEE6DB18D1844B381B2B
:10031000F77C1D901DA4BBE424203284725E2281F0
:1003200000C9F124ECA1E53D2700002100240027AD
:10033000002A002D003000330001010000040107F5
:10034000010A0100002200250028002B002E0031A8
:1003500000340002010000050108010B010000202B
:10036000002300260029002C002F0032000001008D
:100370000003010601090105050505070508080830
:1003800008020202020A0A08080404040401010126
:10039000010101010103030303030303030407072E
:1003A000070C0C0C0C0C0C0C0C02020202060606CC
:1003B00006060606060B0B0B0B0B0B0B0B010210B4
:1003C000202008081020401020408002010201086F
:1003D000040201010204081020408080402010081F
:1003E0000402018004020180402010080402010878
:1003F00004020101020408102040800102040810D8
:1004000020408000000A0B02090C0D0E08070304AF
:1004100001000000000000000000000000000000DB
:1004200000000000000000000000000000000012BA
:10043000111000000000000000000000000000009B
:10044000000000000000000000005B16771B112474
:100450001FBECFEFD1E2DEBFCDBF00E00CBF25E075
:10046000ACE5B2E001C01D92A63AB207E1F712E096
:10047000A0E0B2E0E2E0F9E400E00BBF02C00790C8
:100480000D92AC35B107D9F712E0C6E2D2E000E038
:1004900006C021970109802FFE010E943422C53237
:1004A000D10780E00807A9F70E9408170C946F2471
:1004B0000C940000EDE3F5E030E020E0908198132B
:1004C0000DC085E0829FF001839FF00D1124E35C55
:1004D000FA4F618172818381948108952F5F3F4F2C
:1004E00035962530310551F760E070E0CB01089575
:1004F000EDE3F5E09081981739F0359695E0E63513
:10050000F907C1F780E0089581E0089581508231B4
:1005100008F05AC0E82FF0E08827EE56FD4F8F4FC5
:100520000C943422B202B602A402AA02AE02E40281
:10053000B902BF02C302C902CD02D102D702DB0257
:10054000E402DF02E502E902809180008F77809368
:1005500080000895809180008F7DF9CF8091800088
:10056000877FF5CF84B58F7784BD089584B58F7D5F
:10057000FBCF8091B0008F778093B0000895809179
:10058000B0008F7DF9CF809190008F77809390009D
:100590000895809190008F7DF9CF80919000877FA2
:1005A000F5CF8091A0008F778093A000089580916F
:1005B000A0008F7DF9CF8091A000877FF5CF80913B
:1005C00020018F77809320010895809120018F7DF5
:1005D000F9CF80912001877FF5CFCF93DF93282F2C
:1005E00030E0F901ED5FFB4F8491F901E354FC4FDA
:1005F000D491F901E958FC4FC491CC23A1F08111A9
:100600000E948602EC2FF0E0EE0FFF1FE35AFC4F32
:10061000A591B491EC91ED2381E090E009F480E0A4
:10062000DF91CF91089580E090E0FACF1F93CF93B0
:10063000DF93282F30E0F901ED5FFB4F8491F90142
:10064000E354FC4FD491F901E958FC4FC491CC23F9
:10065000A9F0162F81110E948602EC2FF0E0EE0F18
:10066000FF1FED5BFC4FA591B4918FB7F894EC910F
:10067000111108C0D095DE23DC938FBFDF91CF919D
:100680001F910895DE2BF8CF61E085E00E941603EC
:1006900061E089E00E94160361E080E10E94160398
:1006A00061E080E00E94160361E080E00C94160394
:1006B00060E085E00E94160360E089E00E94160376
:1006C00060E080E10E94160360E080E00E94160373
:1006D00060E080E00C941603CF93DF9390E0FC0180
:1006E000E354FC4F249189589C4FFC01849188234A
:1006F000D1F090E0880F991FFC01E75DFC4FA591B8
:10070000B491FC01ED5BFC4FC591D491623071F462
:100710009FB7F8943C91822F809583238C93E88136
:100720002E2B28839FBFDF91CF9108958FB7F89428
:10073000EC912E2B2C938FBFF6CF3FB7F89480917E
:100740004B0390914C03A0914D03B0914E0326B5FD
:10075000A89B05C02F3F19F00196A11DB11D3FBFF9
:10076000BA2FA92F982F8827BC01CD01620F711DC8
:10077000811D911D42E0660F771F881F991F4A95C2
:10078000D1F708958F929F92AF92BF92CF92DF924E
:10079000EF92FF926B017C010E949D034B015C0173
:1007A000C114D104E104F104B9F00E949D03681959
:1007B00079098A099B09683E73408105910580F398
:1007C00021E0C21AD108E108F10888EE880E83E022
:1007D000981EA11CB11CE4CFFF90EF90DF90CF904A
:1007E000BF90AF909F908F900895682F83E00C94F6
:1007F0001603A59AA5980895682F8CE00C9416030B
:10080000E2E0F1E080818062808380818F7D80835F
:100810000895682F8EE00C941603E5E0F1E08081E6
:100820008160808380818E7F80830895682F80E03F
:100830000C941603149A149808950C941604419A73
:100840004198089508950895AF92BF92CF92DF9294
:10085000EF92FF920F931F93CF93DF936C017B0175
:100860008B01040F151FEB015E01AE18BF08C01706
:10087000D10759F06991D601ED91FC910190F08179
:10088000E02DC6011995892B79F7C501DF91CF912C
:100890001F910F91FF90EF90DF90CF90BF90AF909E
:1008A0000895CF93DF93FC0144815581608171816C
:1008B0008FE493E00E942404EC0142E050E06AE2FD
:1008C00072E08FE493E00E9424048C0F9D1FDF915F
:1008D000CF910895FC01538D448D252F30E0842F56
:1008E00090E0821B930B541710F0CF960895019758
:1008F0000895FC01918D828D981761F0A28DAE0F45
:10090000BF2FB11D5D968C91928D9F5F9F73928FCB
:1009100090E008958FEF9FEF0895FC01918D828DF7
:10092000981731F0828DE80FF11D858D90E00895C4
:100930008FEF9FEF0895FC01918D228D892F90E01C
:10094000805C9F4F821B91098F73992708958FE4D4
:1009500093E00E949B0421E0892B09F420E0822F80
:100960000895FC01A48DA80FB92FB11DA35ABF4F44
:100970002C91848D90E001968F739927848FA6899E
:10098000B7892C93A089B1898C91837080648C93F2
:10099000938D848D981306C00288F389E02D8081A1
:1009A0008F7D80830895EF92FF920F931F93CF93D3
:1009B000DF93EC0181E0888F9B8D8C8D98131AC09A
:1009C000E889F989808185FF15C09FB7F894EE8981
:1009D000FF896083E889F9898081837080648083DE
:1009E0009FBF81E090E0DF91CF911F910F91FF9029
:1009F000EF900895F62E0B8D10E00F5F1F4F0F73D1
:100A00001127E02E8C8D8E110CC00FB607FCFACF8B
:100A1000E889F989808185FFF5CFCE010E94B10474
:100A2000F1CFEB8DEC0FFD2FF11DE35AFF4FF0825C
:100A30009FB7F8940B8FEA89FB8980818062CFCFC2
:100A4000CF93DF93EC01888D8823B9F0AA89BB8905
:100A5000E889F9898C9185FD03C0808186FD0DC0F0
:100A60000FB607FCF7CF8C9185FFF2CF808185FF11
:100A7000EDCFCE010E94B104E9CFDF91CF9108956F
:100A800080E090E0892B29F00E94A70481110E9448
:100A9000000080E090E0892B49F080E090E0892B15
:100AA00029F00E94000081110E94000080E090E087
:100AB000892B49F080E090E0892B29F00E9400000A
:100AC00081110E94000080E090E0892B49F080E0D5
:100AD00090E0892B29F00E94000081110C94000005
:100AE00008952091EB02260F3327331F2132310561
:100AF000ECF420910F03FC0190E080E0243069F0D9
:100B000082E00895A091EB022191AC0145535D4F25
:100B1000A40FB52FB11D2C930196861798F38091E1
:100B2000EB02680F6093EB0280E0089581E0089586
:100B300010920F0381E0809311031092100361E083
:100B400084E10E94160361E085E10E941603E9EB4F
:100B5000F0E080818E7F808380818D7F808388E438
:100B60008093B80085E48093BC000895CF93DF9311
:100B700091E09093CA028823B9F0C091B800D09157
:100B8000BA008091BC008A7B8093BC0060E084E165
:100B90000E94160360E085E10E9416030E949805FA
:100BA000D093BA00C093B800DF91CF910895089513
:100BB000E0913C0380913B03E81730F4F0E0EB5503
:100BC000FD4F808190E008958FEF9FEF0895909101
:100BD0003C0380913B032FEF3FEF981748F4E92F38
:100BE000F0E0EB55FD4F208130E09F5F90933C0398
:100BF000C901089580913B0390913C03891B990B97
:100C00000895CF92DF92EF92FF920F931F93CF93AD
:100C1000DF937C01CB018A012091A402222389F079
:100C2000EB016B01C40ED51ECC15DD0569F0699191
:100C3000D701ED91FC910190F081E02DC70119954C
:100C4000F3CF642F0E947105C801DF91CF911F91EE
:100C50000F91FF90EF90DF90CF900895CF93DF93A7
:100C60001F92CDB7DEB769832091A4022223F9F049
:100C700020913903203258F021E030E0FC01338329
:100C8000228390E080E00F90DF91CF9108958091D2
:100C90003A03E82FF0E0EC57FD4F998190838F5F86
:100CA00080933A038093390381E090E0ECCF61E0D8
:100CB000CE0101960E947105F7CF90E080E0089583
:100CC0008F929F92AF92BF92EF92FF920F931F93DA
:100CD000CF93DF93EC01812C912C5401161617064B
:100CE0008CF4812C912CB4E3AB2EB3E4BB2E643B8B
:100CF000710544F4072E000C880B990B0E94BC1F51
:100D00004B015C0188818930D8F5EC80FD800A8137
:100D10001B81B701601B710B90E080E00E94BA1F3D
:100D2000A50194010E941B2020E030E044E353E43D
:100D30000E9463214B015C01B80190E080E00E94B9
:100D4000BA1FA50194010E94F7200E94D5216017C7
:100D5000710708F5B801798768878981823001F5C4
:100D600080917B028F3F61F410929B0010929A0059
:100D700088859985880F991F90939B0080939A008E
:100D8000DF91CF911F910F91FF90EF90BF90AF90A7
:100D90009F908F900895E616F706E8F6B701DBCF2F
:100DA000833089F480917C028F3F51F710929D002F
:100DB00010929C0088859985880F991F90939D00BB
:100DC00080939C00DDCF853089F480917D028F3F38
:100DD000B9F6109299001092980088859985880F2D
:100DE000991F9093990080939800CACF863089F418
:100DF00080917E028F3F21F61092A9001092A800E8
:100E000088859985880F991F9093A9008093A800E1
:100E1000B7CF873091F480917F028F3F09F0B0CF38
:100E20001092AB001092AA0088859985880F991FAF
:100E30009093AB008093AA00A3CF883091F4809167
:100E400080028F3F09F09CCF1092AD001092AC0051
:100E500088859985880F991F9093AD008093AC0089
:100E60008FCF8C3291F4809181028F3F09F088CF2F
:100E700010922D0110922C0188859985880F991F59
:100E800090932D0180932C017BCF8D3291F4809132
:100E900082028F3F09F074CF10922B0110922A0129
:100EA00088859985880F991F90932B0180932A013B
:100EB00067CF8E3209F064CF809183028F3F09F0B3
:100EC0005FCF109229011092280188859985880F9B
:100ED000991F909329018093280152CFFC0184EF40
:100EE00091E09383828384EC99E09583848388EBFB
:100EF0009BE09783868380818930B8F562307105E5
:100F0000B1F580917C0281111FC080917D02811119
:100F10001BC010929000109291001092920080914C
:100F20009100826080939100809190008260809314
:100F300090008091910088618093910080E49CE909
:100F400090939700809396008091900080628093A8
:100F500090008681978190939B0080939A006C9A71
:100F60008FEF80937B0282E08183808108956330DC
:100F70007105A1F580917B0281111FC080917D02D6
:100F800081111BC01092900010929100109292005B
:100F900080919100826080939100809190008260A6
:100FA000809390008091910088618093910080E40B
:100FB0009CE99093970080939600809190008860C0
:100FC000809390008681978190939D0080939C00F0
:100FD0006D9A8FEF80937C0283E0C6CF65307105F8
:100FE000A1F580917B0281111FC080917C0281114B
:100FF0001BC010929000109291001092920080916C
:101000009100826080939100809190008260809333
:1010100090008091910088618093910080E49CE928
:1010200090939700809396008091900080688093C1
:1010300090008681978190939900809398006B9A95
:101040008FEF80937D0285E08FCF66307105C1F50B
:1010500080917F0281111FC08091800281111BC08D
:101060001092A0001092A1001092A2008091A10005
:1010700082608093A1008091A00082608093A00094
:101080008091A10088618093A10080E49CE9909305
:10109000A7008093A6008091A00080688093A000A4
:1010A000868197819093A9008093A8008091010187
:1010B0008860809301018FEF80937E0286E054CF99
:1010C00067307105C1F580917E0281111FC080914A
:1010D000800281111BC01092A0001092A1001092FA
:1010E000A2008091A10082608093A1008091A00065
:1010F00082608093A0008091A10088618093A1000C
:1011000080E49CE99093A7008093A6008091A000C2
:1011100080628093A000868197819093AB0080933A
:10112000AA00809101018061809301018FEF80937B
:101130007F0287E019CF68307105C1F580917E028A
:1011400081111FC080917F0281111BC01092A000ED
:101150001092A1001092A2008091A1008260809361
:10116000A1008091A00082608093A0008091A100E6
:1011700088618093A10080E49CE99093A70080930C
:10118000A6008091A00088608093A000868197814E
:101190009093AD008093AC008091010180628093B8
:1011A00001018FEF8093800288E0DECE6C32710502
:1011B000C1F58091820281111FC08091830281114B
:1011C0001BC01092200110922101109222018091E7
:1011D00021018260809321018091200182608093AF
:1011E00020018091210188618093210180E49CE9A4
:1011F000909327018093260180912001886080933D
:1012000020018681978190932D0180932C018091FC
:101210000A01806280930A018FEF809381028CE241
:10122000A3CE6D327105C1F58091810281111FC07D
:101230008091830281111BC0109220011092210124
:10124000109222018091210182608093210180917E
:101250002001826080932001809121018861809328
:10126000210180E49CE990932701809326018091DD
:1012700020018062809320018681978190932B01C9
:1012800080932A0180910A01806180930A018FEF87
:10129000809382028DE268CE6E32710509F065CED0
:1012A0008091810281111FC08091820281111BC037
:1012B00010922001109221011092220180912101AF
:1012C00082608093210180912001826080932001BF
:1012D0008091210188618093210180E49CE99093B1
:1012E000270180932601809120018068809320014E
:1012F00086819781909329018093280180910A012A
:10130000886080930A018FEF809383028EE22CCE57
:10131000CF92DF92EF92FF920F931F93CF93DF93C1
:1013200000D000D000D01F92CDB7DEB780E50E947C
:101330007802882349F080E50E945A020E94D52154
:1013400070937A026093790283E50E947802882381
:1013500049F083E50E945A020E94D52170937802D9
:101360006093770284E50E947802882349F084E53F
:101370000E945A020E94D5217093760260937502F2
:101380001A8280913D038930D0F591E0980F9093B7
:101390003D0389830091790210917A02000F111F99
:1013A000000F111FC801825C9C4F6C01FC0162811F
:1013B0007381CE0101960E946E07F60180819181B2
:1013C000E0907702F09078028E159F05D4F4C080EB
:1013D000D180EC14FD046CF1B601CE0101960E949F
:1013E00060066091750270917602072E000C880BE2
:1013F000990B0E94C203FFEFCF1ADF0AEACF8FEFEB
:10140000C8CFC080D180CE14DF049CF0B601CE01DD
:1014100001960E9460066091750270917602072E17
:10142000000C880B990B0E94C203F1E0CF1AD1087F
:10143000EACFF801E25CFC4FF182E0822A960FB617
:10144000F894DEBF0FBECDBFDF91CF911F910F91FA
:10145000FF90EF90DF90CF900895CF92DF92EF92C0
:10146000FF920F931F93CF9389E40E947802882301
:1014700049F089E40E945A020E94D52170937402B7
:101480006093730281E08093A40288E080937202EB
:1014900010923A0310923903809173029091740272
:1014A00064E670E00E9420228CEE93E00E942E06FB
:1014B000C0913903C13208F091C00E949D036B01B5
:1014C0007C0180910F03811164C082E080930F033F
:1014D00081E0809311038FEF80930E03109233030A
:1014E000C0933203A4E8B2E0E2E1F3E080E0C81385
:1014F00083C010923403809134038061809334035D
:1015000080911003813009F07BC0109210030E947B
:101510009D036B017C01809134038093BB0080911B
:10152000C6029091C702A091C802B091C902892B4E
:101530008A2B8B2B99F00E949D030091C60210917B
:10154000C7022091C8023091C9026C197D098E0929
:101550009F090617170728073907E0F18091BC009B
:1015600083FDD9CF85EC8093BC000E949D036B0165
:101570007C0180910F03823009F444C080910E03F6
:101580008F3F61F180910E03803241F180910E0313
:1015900025C08091C6029091C702A091C802B09167
:1015A000C902892B8A2B8B2B09F48BCF0E949D03B8
:1015B0000091C6021091C7022091C8023091C90261
:1015C0006C197D098E099F09061717072807390727
:1015D00008F077CF8091C5020E94B60510923A03B9
:1015E000109239031092A402CF911F910F91FF9096
:1015F000EF90DF90CF9008959D9191938F5F77CF7B
:1016000085EEB1CF8091C6029091C702A091C80229
:10161000B091C902892B8A2B8B2B09F4AACF0E9487
:101620009D030091C6021091C7022091C80230911B
:10163000C9026C197D098E099F090617170728072B
:10164000390708F096CFC6CF0F931F93CF93DF9340
:1016500080E50E947802882349F080E50E945A02C2
:101660000E94D52170937A026093790283E50E94EB
:101670007802882349F083E50E945A020E94D5210E
:101680007093780260937702C0917702D0917802CC
:101690000091790210917A0261E0802F0E946C0320
:1016A000209741F460E0802FDF91CF911F910F913F
:1016B0000C941603CF3FD10511F461E0F4CFF8018B
:1016C000FF27ED5FFB4FE491E150E23108F0B4C039
:1016D000F0E08827E159F44F8F4F0C943422810BAE
:1016E0008A0B8F0B990BA30B1C0CAD0BB50BBD0B11
:1016F000C70BD10BDB0BEA0BF40B1C0CFE0B080C1D
:10170000120C84B5806884BDC7BDDF91CF911F9155
:101710000F91089584B5806284BDC8BDF6CF8091D5
:101720008000806880938000D0938900C0938800F7
:10173000ECCF80918000806280938000D0938B00FA
:10174000C0938A00E2CF80918000886080938000FF
:10175000D0938D00C0938C00D8CF8091B00080686A
:101760008093B000C093B300D0CF8091B00080626E
:101770008093B000C093B400C8CF8091900080687F
:1017800080939000D0939900C0939800BECF809131
:101790009000806280939000D0939B00C0939A0049
:1017A000B4CF80919000886080939000D0939D008A
:1017B000C0939C00AACF8091A00080688093A00075
:1017C0008091A0008F7B8093A000D093A900C0934C
:1017D000A8009BCF8091A00080628093A000D0934E
:1017E000AB00C093AA0091CF8091A0008860809345
:1017F000A000D093AD00C093AC0087CF80912001B2
:10180000806880932001D0932901C09328017DCF67
:1018100080912001806280932001D0932B01C0939E
:101820002A0173CF80912001886080932001D0939A
:101830002D01C0932C0169CFC038D1050CF03DCFEC
:1018400031CFCF92DF92EF92FF920F931F93CF93FE
:10185000DF9380E090E0DC014FE352E46FE070E062
:10186000C1E420915D0230E0082E02C03595279535
:101870000A94E2F720FF14C0C89FF001C99FF00D41
:101880001124E850FC4F05A916A927A930AD04176B
:1018900015072607370720F445A956A967A970AD93
:1018A0000196A11DB11D85309105A105B105C9F6AF
:1018B00010925C0280E090E0DC0111E4C1E0D0E035
:1018C000189FF001199FF00D1124E850FC4F208D56
:1018D00020915D0230E0082E02C0359527950A94CC
:1018E000E2F720FF14C0C5A8D6A8E7A8F0ACC4163C
:1018F000D506E606F70659F420915C02FE01082E93
:1019000001C0EE0F0A94EAF72E2B20935C02019699
:10191000A11DB11D85309105A105B10589F6809104
:101920005D0281110BC080916F008D7F80936F00ED
:101930008CED9FEF909389008093880050938900ED
:1019400040938800DF91CF911F910F91FF90EF900E
:10195000DF90CF9008954F925F926F927F928F9217
:101960009F92AF92BF92CF92DF92EF92FF920F932E
:101970001F93CF93DF93CDB7DEB760970FB6F89480
:10198000DEBF0FBECDBF8C016A017B0181E4809F69
:10199000F001819FF00D1124E850FC4F0084F18587
:1019A000E02DDB01CA0180959095A095B095882720
:1019B000B7FD83959927AA27BB2719958FEF9FEF2E
:1019C0001C141D041E041F0414F481E090E021E4A3
:1019D000209FF001219FF00D1124E850FC4F938BC4
:1019E000828BF7FE08C0F094E094D094C094C11CA0
:1019F000D11CE11CF11C81E4809F9001819F300D7E
:101A0000112428503C4F3A832983D9015496CD9212
:101A1000DD92ED92FC9257976D917D918D919C9105
:101A20000E94DC21E981FA81758764876485758568
:101A300090E080E00E94BA1FA981BA81D1966D938F
:101A40007D938D939C93D497D1966D917D918D913B
:101A50009C91D4970E94DC21E981FA8165AB76AB39
:101A600087AB90AF11AE12AE13AE14AE15A616A68C
:101A700017A610AA118E128E138E148E108E80E06F
:101A800090E0A0E8BFE381A792A7A3A7B4A76481D1
:101A9000758186819781A484B5840E94BA1F2B0129
:101AA0003C01B50190E080E00E94BA1F9B01AC01AF
:101AB000C301B2010E94632126E53EE04DE25FE3EF
:101AC0000E941B204B015C01AC019B010E941B206A
:101AD00020E030E040E85FE30E94F6202B013C016B
:101AE00020E030E040E050ECC501B4010E941B2032
:101AF0009B01AC01C301B2010E9463219B01AC01B7
:101B00000E941B200E94DC21A981BA815D966D9301
:101B10007D938D939C93909780915D0221E030E0BE
:101B2000002E01C0220F0A94EAF7822B80935D02F7
:101B3000FD01858D968DA78DB0A1880F991FAA1FD5
:101B4000BB1F8C159D05AE05BF0508F0BBC0858D7C
:101B5000968DA78DB0A1880F991FAA1FBB1FA70143
:101B60009601281B390B4A0B5B0B29873A874B8759
:101B70005C87858D968DA78DB0A18D839E83AF8365
:101B8000B8876485758590E080E00E94BA1F6B017C
:101B90007C0135E0432E512C612C712C21E030E08A
:101BA00040E050E029833A834B835C83812C912C65
:101BB00054018D819E81AF81B88529813A814B8105
:101BC0005C81281739074A075B07B8F5A70196011A
:101BD000C701B6010E94F7206D877E878F87988B9B
:101BE000C301B2010E94BA1F9B01AC016D857E85C5
:101BF0008F8598890E9463219B01AC01C701B601C2
:101C00000E94F6206B017C01AC019B01C501B4016F
:101C10000E94F7204B015C0189819A81AB81BC81D4
:101C20000196A11DB11D89839A83AB83BC8394E087
:101C3000490E511C611C711CBCCF81E4809FD001F6
:101C4000819FB00D1124A850BC4FBA83A98314966C
:101C50002D913D914D915C91179769857A858B8582
:101C60009C850E9410220E94BA1F6B017C01A50175
:101C70009401C501B4010E94F7209B01AC01C7018A
:101C8000B6010E94F7200E94DC21E981FA8161A35C
:101C900072A383A394A360960FB6F894DEBF0FBE21
:101CA000CDBFDF91CF911F910F91FF90EF90DF900B
:101CB000CF90BF90AF909F908F907F906F905F90EC
:101CC0004F900895A701960156954795379527950A
:101CD0002D833E834F835887A981BA811C966D91CD
:101CE0007C9190E080E00E94BA1F6B017C0195E03E
:101CF000492E512C612C712C21E030E040E050E065
:101D000029833A834B835C83812C912C54018D81F0
:101D10009E81AF81B88529813A814B815C812817EA
:101D200039074A075B07B8F5A7019601C701B60155
:101D30000E94F72069877A878B879C87C301B2014D
:101D40000E94BA1F9B01AC0169857A858B859C85B1
:101D50000E9463219B01AC01C701B6010E94F620DD
:101D60006B017C01AC019B01C501B4010E94F7200D
:101D70004B015C0189819A81AB81BC810196A11DD7
:101D8000B11D89839A83AB83BC8394E0490E511CB7
:101D9000611C711CBCCFA5019401C501B4010E9456
:101DA000F7200E94DC2121E4209FF001219FF00D0B
:101DB0001124E850FC4F6BCF8F929F92AF92BF924D
:101DC000CF92DF92EF92FF921F93CF93DF9388E53C
:101DD0000E947802882359F188E50E945A02C09037
:101DE0006E02D0906F02E0907002F09071020E943B
:101DF000D521CB018C199D09AC01092E000C660B75
:101E0000770BC40ED51EE61EF71EC0926E02D0924E
:101E10006F02E0927002F0927102892B21F090E043
:101E200080E00E94AB0C60E085E00E94160389E52B
:101E30000E947802882359F189E50E945A02C090D5
:101E40006A02D0906B02E0906C02F0906D020E94EA
:101E5000D521CB018C199D09AC01092E000C660B14
:101E6000770BC40ED51EE61EF71EC0926A02D092F2
:101E70006B02E0926C02F0926D02892B21F081E0FE
:101E800090E00E94AB0C60E089E00E9416038AE5B6
:101E90000E947802882359F18AE50E945A02C09074
:101EA0006602D0906702E0906802F09069020E949A
:101EB000D521CB018C199D09AC01092E000C660BB4
:101EC000770BC40ED51EE61EF71EC0926602D09296
:101ED0006702E0926802F0926902892B21F082E0A9
:101EE00090E00E94AB0C60E080E10E94160381E468
:101EF0000E947802882359F181E40E945A02C0901E
:101F00006202D0906302E0906402F09065020E9449
:101F1000D521CB018C199D09AC01092E000C660B53
:101F2000770BC40ED51EE61EF71EC0926202D09239
:101F30006302E0926402F0926502892B21F083E053
:101F400090E00E94AB0C60E080E00E94160382E407
:101F50000E947802882359F182E40E945A02C090BC
:101F60005E02D0905F02E0906002F09061020E94F9
:101F7000D521CB018C199D09AC01092E000C660BF3
:101F8000770BC40ED51EE61EF71EC0925E02D092DD
:101F90005F02E0926002F0926102892B21F084E0FE
:101FA00090E00E94AB0C60E080E00E94160386E4A3
:101FB0000E9478028823F9F086E40E945A020E9467
:101FC000D521D0E0C0E06B01770FEE08FF0811E4E7
:101FD000C701B6010E94BC1F1C9FF0011D9FF00DA0
:101FE0001124E850FC4F6083718382839383219690
:101FF000C530D10569F7812C912C5401C12CD12C0D
:10200000760111E480915D0290E00C2C02C0959560
:1020100087950A94E2F780FF1DC01C9DE0011D9D7D
:10202000D00D1124C850DC4F69A17AA18BA19CA1CD
:102030000E94BA1F9B01AC01C501B4010E94B51FEB
:1020400087FF08C069A17AA18BA19CA10E94BA1F39
:102050004B015C018FEFC81AD80AE80AF80A85E03C
:10206000C816D104E104F10469F620E030E0A901CA
:10207000C501B4010E94B51F882389F1C12CD12C60
:10208000760111E480915D0290E00C2C02C09595E0
:1020900087950A94E2F780FF17C01C9DE0011D9D03
:1020A000D00D1124C850DC4F69A17AA18BA19CA14D
:1020B0000E94BA1F9B01AC01C501B4010E946321BB
:1020C00069A77AA78BA79CA78FEFC81AD80AE80A36
:1020D000F80A85E0C816D104E104F10499F60E94DB
:1020E000210C80916F00826080936F0080915D026F
:1020F0008111FCCF10925D0210925C02DF91CF91B2
:102100001F91FF90EF90DF90CF90BF90AF909F9086
:102110008F9008958091660590916705009711F062
:102120000C94AC1B60E070E0CB010895CF93DF937B
:10213000EC01A881B981EB01E881F9811097F1F0F8
:102140003097B1F4EC018C819D81892BC9F08C9181
:1021500090E00BC0DB0114968D919C91892B81F04E
:10216000808190E0919581959109DF91CF910895BB
:10217000BF01CD01DF91CF910C945F24309751F7CF
:1021800090E080E0F2CF0F931F93CF93DF93EC01A9
:1021900088819981009759F02A813B81261737075A
:1021A00030F081E0DF91CF911F910F9108958B0165
:1021B0006F5F7F4F0E947523009759F09983888342
:1021C0001B830A832C813D81232B59F7FC0110824C
:1021D000E8CF80E0E7CFCF93DF93EC01888199814E
:1021E000009711F00E94EC22198218821D821C8235
:1021F0001B821A82DF91CF910895EF92FF920F9385
:102200001F93CF93DF93EC01FB01E080F180E11499
:10221000F10411F10481158101151105A9F08C81DA
:102220009D81080F191FB801CE010E94C310882399
:1022300099F0288139818C819D81B701820F931F8C
:102240000E9468241D830C83CE01DF91CF911F91E2
:102250000F91FF90EF900895CE010E94EB10F4CF04
:10226000EF92FF920F931F93CF93DF93EC017B01CB
:102270008A01BA010E94C31081110BC0CE010E94D5
:10228000EB10CE01DF91CF911F910F91FF90EF9056
:1022900008951D830C83B701888199810E94682469
:1022A000F0CFFB0101900020E9F73197AF01461B09
:1022B000570B0C943011CF93DF931F921F92CDB721
:1022C000DEB7FC0111821082138212821582148201
:1022D00069831A82BE016F5F7F4F0E9451110F9078
:1022E0000F90DF91CF910895CF93DF93EC01FB0125
:1022F0008617970749F0608171816115710541F07A
:10230000448155810E943011CE01DF91CF91089513
:102310000E94EB10F9CFFC0111821082138212820D
:10232000158214820C947411FC01118210821382A4
:10233000128215821482FB0101900020E9F7319787
:10234000AF01461B570B0C943011FC018081918129
:10235000009711F00C94EC22089585ED8093BC0059
:102360008091C6029091C702A091C802B091C902A3
:102370000796A11DB11D23E0B695A7959795879562
:102380002A95D1F72091BC0024FD03C010920F03C1
:1023900008954091C6025091C7026091C8027091A1
:1023A000C902452B462B472B69F30097A105B105C0
:1023B00041F02AE22A95F1F700C00197A109B1097D
:1023C000E1CF8091C5020C94B6051F920F920FB613
:1023D0000F9211242F933F938F939F93AF93BF93AB
:1023E0008091470390914803A0914903B0914A031B
:1023F0003091460323E0230F2D3758F50196A11D98
:10240000B11D209346038093470390934803A09304
:102410004903B0934A0380914B0390914C03A091E0
:102420004D03B0914E030196A11DB11D80934B0346
:1024300090934C03A0934D03B0934E03BF91AF9183
:102440009F918F913F912F910F900FBE0F901F90F2
:10245000189526E8230F0296A11DB11DD2CF1F9219
:102460000F920FB60F9211240BB60F922F933F933A
:102470004F935F936F937F938F939F93AF93BF938C
:10248000EF93FF938FE493E00E94B104FF91EF91EB
:10249000BF91AF919F918F917F916F915F914F917C
:1024A0003F912F910F900BBE0F900FBE0F901F907A
:1024B00018951F920F920FB60F9211240BB60F9220
:1024C0002F938F939F93EF93FF93E0915F03F0918E
:1024D00060038081E0916503F091660382FD1DC079
:1024E0009081809168038F5F8F73209169038217B9
:1024F00041F0E0916803F0E0E15BFC4F958F809341
:102500006803FF91EF919F918F912F910F900BBED8
:102510000F900FBE0F901F9018958081F2CF1F92E1
:102520000F920FB60F9211240BB60F922F933F9379
:102530004F935F936F937F938F939F93AF93BF93CB
:10254000EF93FF938091B900887F803609F44DC0E6
:1025500008F040C0883209F4A9C028F5803109F498
:102560009DC0C8F4882309F4FBC0883009F496C0E4
:10257000FF91EF91BF91AF919F918F917F916F915B
:102580005F914F913F912F910F900BBE0F900FBE17
:102590000F901F901895883109F488C0803241F758
:1025A00080930E0314C0803409F49DC040F480333E
:1025B000B9F38833E9F680930E0385ECB0C080351B
:1025C00009F485C0883509F496C0883489F60E94DC
:1025D000AD11CECF883909F48CC038F5883729F091
:1025E00050F4883611F0803719F683E080930F039A
:1025F00010920D0357C0883809F47BC0803919F058
:10260000803809F0B5CF80910D03803208F071C099
:10261000E0910D0381E08E0F80930D038091BB004C
:10262000F0E0E351FD4F80833DC0803B39F0E0F4A2
:10263000803A09F479C0883A09F09ACF84E080930F
:102640000F031092EC021092EB02E0913703F0912D
:10265000380319958091EB0281110FC081E08093BE
:10266000EB021092CB0209C0803C09F4A6CF883C53
:1026700009F4A3CF883B09F07BCFE091EC0281E025
:102680008E0F8093EC02F0E0E553FD4F8081809344
:10269000BB009091EC028091EB0229C08091340341
:1026A0008093BB0085EC8093BC0062CF9091330394
:1026B00080913203981758F5E091330381E08E0F33
:1026C00080933303F0E0EE5EFC4F8081E9CFE09130
:1026D000330381E08E0F809333038091BB00F0E0E1
:1026E000EE5EFC4F80839091330380913203981704
:1026F000C8F285E8D8CFE091330381E08E0F809354
:1027000033038091BB00F0E0EE5EFC4F808380914C
:10271000110381115CCF81E08093100384EA8093E0
:10272000BC0010920F0324CF85EC8093BC00109264
:102730000F0380910D03803230F4E0910D03F0E03F
:10274000E351FD4F108260910D0370E0E09135037D
:10275000F09136038DEE92E0199510920D0308CF9B
:1027600010920E0334CF1F920F920FB60F921124C6
:102770000BB60F922F923F924F925F926F927F9281
:102780008F929F92AF92BF92CF92DF92EF92FF9281
:102790000F931F932F933F934F935F936F937F9369
:1027A0008F939F93AF93BF93EF93FF93CF93DF9359
:1027B000CDB7DEB72A97DEBFCDBF8091880090915C
:1027C00089002CED3FEF3093890020938800C12CC5
:1027D000D12C760111E422242394312C01E09C01B8
:1027E00050E040E02D833E834F83588780915D0207
:1027F000BC2C90E00C2C02C0959587950A94E2F7CA
:1028000080FF22C080915C0290E00C2C02C0959564
:1028100087950A94E2F780FD53C01C9DF0011D9D31
:10282000F00D1124E850FC4F85A996A9A7A9B0ADD9
:102830002D813E814F815885821B930BA40BB50BD4
:1028400085AB96ABA7ABB0AFFFEFCF1ADF0AEF0AAD
:10285000FF0A25E0C216D104E104F10439F60E9412
:10286000210C10928500109284002A960FB6F894DD
:10287000DEBF0FBECDBFDF91CF91FF91EF91BF9132
:10288000AF919F918F917F916F915F914F913F9108
:102890002F911F910F91FF90EF90DF90CF90BF90FD
:1028A000AF909F908F907F906F905F904F903F90F0
:1028B0002F900F900BBE0F900FBE0F901F9018958A
:1028C0001C9DA0011D9D500D112448505C4F5A8342
:1028D0004983DA01D9964D915D916D917C91DC9798
:1028E00054968D919D910D90BC91A02D481759073C
:1028F0006A077B0708F075C0A981BA811A96ED9125
:10290000FC911995E981FA8181AD92ADA3ADB4AD89
:102910000196A11DB11D81AF92AFA3AFB4AF828963
:1029200093894685578560897189092E000CAA0B09
:10293000BB0B840F951FA61FB71F86879787A08B99
:10294000B18B41AD52AD63AD74AD84899589A689D3
:10295000B789481759076A077B0730F11C9D90011A
:102960001D9D300D112428503C4F3A832983F901D5
:10297000FF96808191810E94ED02892B09F417C195
:102980001C9DF0011D9DF00D1124E850FC4F008F9F
:1029900020915D02C10101C0880FBA94EAF78095C9
:1029A000822380935D021DC0E981FA81FF968081B8
:1029B00091810E94ED02892BA1F4A981BA81DD9653
:1029C0002D913C91DE9752964D915C9181E090E083
:1029D0004130510511F090E080E02817390709F4E3
:1029E000BDCF1C9D90011D9D300D112428503C4FE2
:1029F0003A872987F901818D928DA38DB48D892B1A
:102A00008A2B8B2B09F0F0C085A596A5A7A5B0A9A8
:102A10000196A11DB11D85A796A7A7A7B0AB81A858
:102A200092A8A3A8B4A861A972A983A994A925A56D
:102A300036A547A550A929833A834B835C839B0124
:102A4000AC010E94F7202B013C0169817A818B81C6
:102A50009C8132E0660F771F881F991F3A95D1F746
:102A60006F5F7F4F8F4F9F4F0E94BA1F9B01AC013A
:102A7000C301B2010E9463219B01AC01C501B401F5
:102A80000E94F620E985FA8561AB72AB83AB94AB0B
:102A900081A892A8A3A8B4A8648175818681978132
:102AA0000E94BA1F9B01AC01C501B4010E94B51F71
:102AB0001816C4F0A985BA8514966D917D918D91F3
:102AC0009C9117970E94BA1FE985FA8561AB72AB9A
:102AD00083AB94AB81AD92ADA3ADB4AD818F928F3A
:102AE000A38FB48F1C9DF0011D9DF00D1124E850A3
:102AF000FC4F41AD52AD63AD74AD84899589A68913
:102B0000B789B695A79597958795481759076A0786
:102B10007B0740F081AD92ADA3ADB4AD818F928FB4
:102B2000A38FB48F1C9D90011D9D300D1124285042
:102B30003C4F3A832983D901D1968D909D90AD90D9
:102B4000BC90D49795966D917D918D919C9198971D
:102B50000E94BA1FA50194010E94F7200E94DC2167
:102B6000E981FA8165A376A387A390A71C9D9001B4
:102B70001D9D300D112428503C4F3A832983D901E3
:102B8000D1966D917D918D919C91D49799962D912F
:102B90003D914D915C919C970E941B200E94DC21ED
:102BA000E981FA8165AB76AB87AB90AF4DCEE98119
:102BB000FA8125AD36AD4289538981E090E04130FC
:102BC000510511F090E080E02817390709F0D8CEC0
:102BD0001C9DF0011D9DF00D1124E850FC4F168640
:102BE0001786108A118ACCCEA985BA85D9964D91BF
:102BF0005D916D917C91DC9754968D919D910D9096
:102C0000BC91A02DE985FA85818C928CA38CB48C23
:102C100088199909AA09BB09481759076A077B0748
:102C200008F4A4CF81A892A8A3A8B4A865A576A506
:102C300087A590A945A456A467A470A822E0660FB2
:102C4000771F881F991F2A95D1F76F5F7F4F8F4F8E
:102C50009F4F0E94BA1FA50194010E941B204B01A7
:102C60005C0132E0440C551C661C771C3A95D1F788
:102C7000C301B20161507109810991090E94BA1F13
:102C80009B01AC01C501B4010E946321A985BA85ED
:102C9000D1966D937D938D939C93D497FD0185A5DB
:102CA00096A5A7A5B0A90197A109B10985A796A7DF
:102CB000A7A7B0AB5BCF0F931F93CF93DF93EFE446
:102CC000F3E01382128288EE93E0A0E0B0E0848308
:102CD0009583A683B7832AE032E03183208325ECF5
:102CE00030E03587248724EC30E03787268720ECD6
:102CF00030E0318B208B21EC30E0338B228B22ECC7
:102D000030E0358B248B26EC30E0378B268B118E10
:102D1000128E138E148EECEEF3E0138212828483F3
:102D20009583A683B7838CE192E0918380836DE2E3
:102D300072E080E795E00E94941100E715E08CEDC9
:102D40009EE0F8019783868360E372E088E795E070
:102D50000E94941184E29BE0F8019787868764E3E0
:102D600072E080E895E00E94941188E899E0F8010B
:102D7000978B868B69E372E088E895E00E94941156
:102D80008DE29AE0F801978F868F6EE372E080E91A
:102D900095E00E94941184E493E0F80197A386A340
:102DA00062E472E088E995E00E94941188E593E07E
:102DB000F80197A786A76CE272E086E595E00E948D
:102DC0009411CDE3D5E01F8E18A21CA21BA218A659
:102DD0001FA26CE272E086E695E00E94941118AAA8
:102DE0001FA61AAA19AA1AA309A386E090E09CA319
:102DF0008BA310921004109251041092920410921E
:102E0000D30410921405DF91CF911F910F91089573
:102E1000CF93DF93CDB7DEB7E3970FB6F894DEBF5D
:102E20000FBECDBF789484B5826084BD84B58160C7
:102E300084BD85B5826085BD85B5816085BD809185
:102E40006E00816080936E001092810080918100FD
:102E500082608093810080918100816080938100F5
:102E6000809180008160809380008091B1008460B7
:102E70008093B1008091B00081608093B000809118
:102E80009100826080939100809191008160809395
:102E90009100809190008160809390008091A100CA
:102EA00082608093A1008091A10081608093A10045
:102EB0008091A00081608093A000809121018260B8
:102EC0008093210180912101816080932101809173
:102ED000200181608093200180917A00846080933A
:102EE0007A0080917A00826080937A0080917A00E3
:102EF000816080937A0080917A00806880937A0064
:102F00001092C100E0915F03F091600382E0808342
:102F1000E0915B03F0915C031082E0915D03F0911E
:102F20005E0380E1808310926703E0916303F09178
:102F3000640386E08083E0916103F0916203808105
:102F400080618083E0916103F091620380818860F9
:102F50008083E0916103F0916203808180688083C7
:102F6000E0916103F091620380818F7D80831BA2D9
:102F70001AA21DA21CA21FA21EA28E010F5F1F4F2C
:102F800022E044E066E676E686E090E40E948E1B4E
:102F9000009709F4F9C2BC01CE0182960E9451113A
:102FA00066E472E0CE0101960E949411BE016E5D4E
:102FB0007F4FCE0101960E94FD107C01FC0104812F
:102FC0001581025F1F4FB8010E94C310882309F4C6
:102FD000E0C2F701208131818481958168E472E04B
:102FE000820F931F0E946824F70115830483C70191
:102FF0000E945104CE0101960E94A511CE01829635
:103000000E94A51167E572E086E595E00E945111E6
:103010008FEF9FEF90936D0580936C056CE272E0EB
:1030200086E695E00E94511110925C0510925D05B4
:1030300086E595E05DE3E52E55E0F52EF70110827B
:103040001182128213821482F5E0EF0EF11C8E15AC
:103050009F05A1F710923C0310923B0310923A0394
:10306000109239030E94980582E294E0909338030D
:103070008093370383E294E0909336038093350383
:1030800061E084E00E946C0361E083E00E946C03D5
:1030900061E085E00E946C0362E086E00E946C03C0
:1030A00061E088E00E946C0361E08CE00E946C03A8
:1030B00061E089E00E946C0362E08AE00E946C0398
:1030C00061E08FE00E946C0361E08EE00E946C037F
:1030D00061E080E10E946C0362E081E10E946C0388
:1030E00061E080E00E946C0361E080E00E946C037C
:1030F00061E080E00E946C0362E080E00E946C036B
:1031000061E080E00E946C0361E080E00E946C035B
:1031100061E080E00E946C0362E080E00E946C034A
:1031200061E085E00E94160361E089E00E941603D9
:1031300061E080E10E94160361E080E00E941603D6
:1031400061E080E00E941603F894109280001092D3
:103150008100109285001092840088EE93E0909395
:10316000890080938800809181008860809381002D
:1031700080918100836080938100789485EF93E053
:10318000909301048093000489EF93E090930304EB
:103190008093020440E050E563E477E44093F80351
:1031A0005093F9036093FA037093FB0388EC90E06B
:1031B000A0E0B0E08093FC039093FD03A093FE0396
:1031C000B093FF03109236041092350426E030E0ED
:1031D00030933804209337042CEF33E030934204CB
:1031E0002093410420E034E03093440420934304CE
:1031F0004093390450933A0460933B0470933C0429
:1032000080933D0490933E04A0933F04B093400408
:1032100010927704109276048AE090E090937904FB
:103220008093780489E094E09093830480938204EF
:103230008DE094E0909385048093840480E090E096
:10324000A0EAB1E480937A0490937B04A0937C0479
:10325000B0937D0482E090E0A0E0B0E080937E0433
:1032600090937F04A0938004B09381041092B804DB
:103270001092B70481E190E09093BA048093B9046E
:1032800086E194E09093C4048093C3048AE194E0BF
:103290009093C6048093C50440E050E068E473E472
:1032A0004093BB045093BC046093BD047093BE0470
:1032B00081E090E0A0E0B0E08093BF049093C00470
:1032C000A093C104B093C2041092F9041092F804C0
:1032D0001092FB041092FA042DE134E03093C40400
:1032E0002093C3042FE134E03093C6042093C50437
:1032F0004093BB045093BC046093BD047093BE0420
:103300008093BF049093C004A093C104B093C204FF
:103310001092F9041092F8041092FB041092FA042F
:103320008CE290E0909341038093400310923F031E
:1033300010923E031A8280913D03893008F02DC11E
:1033400091E0980F90933D038983609140037091C1
:103350004103CE0101960E946E0760913E03709179
:103360003F03CE0101960E9460068DE290E09093AB
:1033700045038093440310924303109242036091EB
:10338000440370914503CE0101960E946E0760913F
:10339000420370914303CE0101960E946006AA2465
:1033A000AA94BA2C45E0742E6624639480915C053F
:1033B000882309F1E0916405F0916505309709F4DF
:1033C000EEC01995B0926D05A0926C056CE272E0AA
:1033D00086E695E00E94511110925C0510925D0501
:1033E000EDE3F5E010821182128213821482359689
:1033F000EE16FF06B9F78FE493E00E949B04892B39
:1034000009F4EDC08FE493E00E947904182F803214
:1034100091F38A3019F08D3009F0E4C060925C05B8
:1034200010925D0500916C0510916D0517FD0DC0A2
:103430000E948A10709EF001719EF00D1124E35CD1
:10344000FA4F61837283838394830DE315E0F8015F
:1034500061817281838194810E94D521CB011BA25D
:103460001AA21DA21CA21FA21EA24AE0BE016F5FEB
:103470007F4F0E94B01BBE016F5F7F4FCE018296CF
:103480000E945111F8016081CE0188960E945B1163
:10349000BE01685D7F4FCE0101960E948B11BE0177
:1034A0006E5D7F4FCE0101960E94FD10BC01CE01E2
:1034B0008E960E948B11CE0101960E94A511CE011D
:1034C00088960E94A511CE0182960E94A511D12C4A
:1034D000C12C8091600590916105C816D9060CF049
:1034E0006DC080905E0590905F05C60123E0880F57
:1034F000991F2A95E1F7880E991EB401CE01019615
:103500000E948B11F4018681978198878F83F8013F
:103510006081CE0182960E945B112EA13FA18D8118
:103520009E812817390759F4BE016F5F7F4FCE0186
:1035300082960E94961099249394892B09F0912CDD
:10354000CE0182960E94A511992019F0EF81F8858D
:1035500019952AA93BA98D819E812817390761F405
:10356000BE016F5F7F4FCE018E960E949610892B11
:1035700019F4EF81F8851995CE0101960E94A511E5
:10358000FFEFCF1ADF0AA5CFCE0182960E94EB1083
:1035900007CDC7010E94EB102ACD8FEFD5CE66E58F
:1035A00075E0CE0101960E948B11CE0101960E941A
:1035B0005104CE0101960E94A51104CFCE018E9632
:1035C0000E94A5110B5F1F4FE016F10609F03FCFD7
:1035D000E0916205F0916305309709F019950E941A
:1035E0004005E4CE8B3321F080915D05882319F0EE
:1035F00060925D0500CF80ED810F8A3020F083ED71
:10360000810F823000F5612FCE0101960E945B117F
:1036100066E675E0CE0182960E948B11BE016F5F57
:103620007F4FCE0182960E94FD10BC0186E695E098
:103630000E947411CE0182960E94A511CE010196BE
:103640000E94A511D8CE8FED810F8E3508F0D3CE14
:103650008FE9810F8A3108F41052C0906C05D09028
:103660006D0524E0C216D1040CF0C5CED7FC25C0F0
:103670000E948A107C9CF0017D9CF00D1124E35C7B
:10368000FA4F61837283838394836CE272E086E6EF
:1036900095E00E94511180916C0590916D05019605
:1036A00090936D0580936C05789EF001799EF00DE6
:1036B0001124E35CFA4F10839ECE0E948A1020E012
:1036C00030E0A9010E940B221816FCF610926D053D
:1036D00010926C0510923D050E948A1060933E0581
:1036E00070933F058093400590934105CECFCF93D3
:1036F000DF9386E695E00E94A51186E595E00E949D
:10370000A511C0EAD5E02897CE010E94A51185E059
:10371000C037D807C1F7DF91CF910895EF920F938B
:103720001F93CF93DF93E80134E047FD34E1042E8B
:10373000000C550B57FF03C0519541955109E32EDD
:10374000022F242FAE010E94D51BCE01DF91CF9115
:103750001F910F91EF900895662777270C944E1DC7
:10376000BB274A3031F4992322F4BDE2909581952C
:103770009F4F0C94BC1BBB27FB015527AA27880F22
:10378000991FAA1FA41710F0A41B83955051B9F7D5
:10379000A05DAA3308F0A95DA193009779F7B11154
:1037A000B1931192CB010C94A51F8F929F92AF926F
:1037B000BF92CF92DF92EF92FF920F931F93CF931E
:1037C000DF9300D000D000D0CDB7DEB76A01F22E73
:1037D000B02E102FFBE3AF2EA01608F41BE31F5FE3
:1037E000012F27E0AE014F5F5F4F0E94AC1EBC016E
:1037F0008981982F9970913009F44EC09BE2E1FCC9
:1038000004C09E2D9170E0FC49C05E2D5071E82FE0
:10381000E87083FF55C084E0911101C083E0EF2D73
:10382000E81B8F1508F0E0E0D6018E2F20E255232B
:10383000C9F1992329F0D6019C93C60101966C0128
:1038400096012D5F3F4FE2FE33C08EE4D6018C938C
:1038500091E411969C93119712968C93D9018E2F17
:1038600090E281112AC0E20FF32FF11D10828EEF3A
:103870009FEF29960FB6F894DEBF0FBECDBFDF9144
:10388000CF911F910F91FF90EF90DF90CF90BF905D
:10389000AF909F908F9008959DE2B7CF90E2B5CF03
:1038A0002D9381508111FCCFCE0ED11CE0E0C1CF11
:1038B0008EE6D6018C9391E6CCCF9D938150D1CFEB
:1038C000482F447082FF3DC084E0911101C083E025
:1038D0008F1510F4EF2DE81BD6018E2F20E2552313
:1038E00009F1992329F0D6019C93C60101966C0138
:1038F00096012D5F3F4FE2FE1BC089E4D6018C93F9
:103900008EE411968C93119786E412968C93D901CC
:103910008E2F90E2882309F4A6CF9D938150FACF91
:103920002D9381508111FCCFCE0ED11CE0E0D9CF78
:1039300089E6D6018C938EE611968C93119786E6D4
:10394000E4CF9B0177FF02C030E020E0A1E0B0E0CF
:10395000911102C0B0E0A0E0F9013196AE0FBF1F97
:103960008B2C912CBB2009F461C05401EFEFAE1AEF
:10397000BE0AAA0DBB1DFA161B0619F014F04F2D36
:103980004A1B511188C0E3FC59C07601A42FB0E254
:10399000A1114FC0C40ED11C992309F45BC040E0B3
:1039A000D6011196F60190836D01552309F448C0A4
:1039B000012F060F9A81582F507184FF03C0913355
:1039C00009F4015010160CF047C0093008F008E067
:1039D000EEE2FE2E5B01A01AB1088501919481945C
:1039E00091082F3F320729F4D601FC92F601319657
:1039F0006F016217730794F1021713077CF5DB015F
:103A0000A21BB30BAA24A394B12CAC0EBD1EAA0D0D
:103A1000BB1D11968C9121503109D60111962815A4
:103A20003905F4F0F60180836D01DBCFB12CA12CB8
:103A3000A0CFF701B1937F01A150AACF9111B0CFD0
:103A4000D601942F50E302C05D9391509111FCCFA9
:103A5000C40ED11C40E0ACCF01E0BACF80E3DBCF95
:103A60006217730731F4963388F4953311F45523B4
:103A700069F0F6018083FD01842F90E2811108C076
:103A8000A40FB11D1C9290E080E0F3CE81E3F1CF52
:103A900091938150F3CF911183CF8ACF8F929F92D0
:103AA000AF92BF92CF92DF92EF92FF920F931F934C
:103AB000CF93DF935C017B016115710519F0DB0188
:103AC0008D939C9385010F5F1F4FF501D0818D2F42
:103AD00090E00E94841F6C01892BB9F5DD32B9F5A5
:103AE0000F5F1F4FD5011196DC91C1E05801F1E045
:103AF000AF1AB10843E050E06CEF71E0C5010E94DD
:103B00008D1F892B69F5680182E0C80ED11C45E044
:103B100050E067EF71E0C6010E948D1F892B21F4F0
:103B2000680197E0C90ED11CE114F10419F0D70126
:103B3000CD92DC9260E070E080E89FEFC111FFC0A1
:103B400060E070E080E89FE7FAC05801BBCFDB324D
:103B500029F485010E5F1F4FF501D181C0E0C6CF6A
:103B600043E050E064EF71E0C5010E948D1F892B96
:103B7000E9F0F80110E000E020E030E0A9015F0189
:103B8000B0ED8B2E8D0E89E08815C8F19C2E6894BF
:103B900091F88C2F8870C2FF16C0811102C00F5F90
:103BA0001F4F3196D501DC91C92DE9CFE114F10405
:103BB00029F00E5F1F4FF7011183008360E070E072
:103BC00080EC9FE7BCC0882311F001501109A5E0EB
:103BD000B0E00E94DC209B01AC01220F331F441F88
:103BE000551F280D311D411D511D283999E93907EF
:103BF000490799E15907A8F2C6609C2ED2CFAEEFD3
:103C00008A1206C0C3FD3CC09C2E689493F8C9CFAD
:103C1000DF7DD534A9F580818D3239F4C061DF01B3
:103C20001296818162E070E006C0DF018B32C1F341
:103C3000119661E070E080535D01A61AB70A8A30E0
:103C4000F8F4E0E8CE16ECE0DE065CF4B601660FB0
:103C5000771F660F771FC60ED71ECC0CDD1CC80E53
:103C6000D11C5D01FFEFAF1ABF0A8C9180538A30DF
:103C7000A8F1C4FF03C0D194C194D1080C0D1D1D3F
:103C8000C1FF09C0E114F10431F081E0A81AB108C4
:103C9000D701AD92BC92CA01B9010E94BA1FC3708C
:103CA000C33009F490584B015C0120E030E0A901D9
:103CB0000E94B51F882309F440C0CBE2D2E017FF71
:103CC00005C0119501951109C3E1D2E06E01B8E17B
:103CD000CB1AD10880E2E82EF12C0FC0D501B1CF6C
:103CE000FE0125913591459154910E191F09C50189
:103CF000B4010E941B204B015C01D501C4010E15CB
:103D00001F0574F72497F594E794CC16DD06A9F700
:103D10008A2F880F8B2F881F8F3F49F020E030E0DB
:103D2000A901C501B4010E94B51F811106C082E23C
:103D300090E09093A1058093A005C501B401DF91A7
:103D4000CF911F910F91FF90EF90DF90CF90BF9098
:103D5000AF909F908F900895283008F027E0332788
:103D6000DA01990F311D87FD91600096610571059B
:103D700039F432602E5F3D9330E32A95E1F70895E0
:103D80009F3F30F080387105610509F03C5F3C5F72
:103D90003D93913008F08068911DDF93CF931F937E
:103DA0000F93FF92EF92192F987F9695E92F969592
:103DB0009695E90FFF27E757FD4F99273327EE2404
:103DC000FF24A701E70105900894079428F4360F13
:103DD000E71EF81E491F511D660F771F881F991F88
:103DE0000694A1F70590079428F4E70EF81E491FE2
:103DF000561FC11D770F881F991F661F0694A1F7D4
:103E00000590079428F4F80E491F561FC71FD11DAF
:103E1000880F991F661F771F0694A1F705900794D6
:103E200020F4490F561FC71FD81F990F661F771F11
:103E3000881F0694A9F784911095177041F0D695C4
:103E4000C79557954795F794E7941A95C1F7EFE210
:103E5000F2E06894159015913591659195910590D2
:103E60007FE27395E118F10A430B560BC90BD00999
:103E7000C0F7E10CF11E431F561FC91FD01D7EF471
:103E8000703311F48A95E6CFE894015030F0080FB2
:103E90000AF40027021708F4202F2395022F7A3303
:103EA00028F079E37D932A95E9F710C07D932A9550
:103EB00089F6069497956795379517951794E118A5
:103EC000F10A430B560BC90BD00998F023957E914C
:103ED00073957A3308F070E37C932013B8F77E91E2
:103EE00070617D9330F0839571E37D9370E32A9543
:103EF000E1F71124EF90FF900F911F91CF91DF9187
:103F0000992787FD9095089591110C94882080320F
:103F100019F089508550C8F70895FB01DC01415024
:103F2000504088F08D9181341CF08B350CF4805E0C
:103F3000659161341CF06B350CF4605E861B611179
:103F400071F3990B0895881BFCCFDC01FC01672FEE
:103F500071917723E1F7329704C07C916D93708360
:103F60006291AE17BF07C8F308950E94F71F08F4C7
:103F700081E00895E89409C097FB3EF49095809500
:103F8000709561957F4F8F4F9F4F9923A9F0F92F1F
:103F900096E9BB279395F695879577956795B7959D
:103FA000F111F8CFFAF4BB0F11F460FF1BC06F5F83
:103FB0007F4F8F4F9F4F16C0882311F096E911C095
:103FC000772321F09EE8872F762F05C0662371F0B6
:103FD00096E8862F70E060E02AF09A95660F771FCA
:103FE000881FDAF7880F9695879597F90895990FA6
:103FF0000008550FAA0BE0E8FEEF16161706E807B3
:10400000F907C0F012161306E407F50798F0621BD3
:10401000730B840B950B39F40A2661F0232B242BA8
:10402000252B21F408950A2609F4A140A6958FEFC7
:10403000811D811D08950E942E200C94A2200E94B3
:10404000942038F00E949B2020F0952311F00C94CE
:104050008B200C94912011240C94D6200E94B32024
:1040600070F3959FC1F3950F50E0551F629FF001CB
:10407000729FBB27F00DB11D639FAA27F00DB11DE4
:10408000AA1F649F6627B00DA11D661F829F22276D
:10409000B00DA11D621F739FB00DA11D621F839FF4
:1040A000A00D611D221F749F3327A00D611D231FCA
:1040B000849F600D211D822F762F6A2F11249F5718
:1040C00050409AF0F1F088234AF0EE0FFF1FBB1F1B
:1040D000661F771F881F91505040A9F79E3F5105DA
:1040E00080F00C948B200C94D6205F3FE4F3983E34
:1040F000D4F3869577956795B795F795E7959F5F84
:10410000C1F7FE2B880F911D9695879597F9089515
:1041100099278827089597F99F6780E870E060E005
:1041200008959FEF80EC089500240A941616170650
:1041300018060906089500240A9412161306140698
:1041400005060895092E0394000C11F4882352F0FB
:10415000BB0F40F4BF2B11F460FF04C06F5F7F4FB3
:104160008F4F9F4F089557FD9058440F551F59F09A
:104170005F3F71F04795880F97FB991F61F09F3F54
:1041800079F087950895121613061406551FF2CF7D
:104190004695F1DF08C0161617061806991FF1CFCD
:1041A00086957105610508940895E894BB276627F4
:1041B0007727CB0197F908950E94E720A59F900DDE
:1041C000B49F900DA49F800D911D11240895A29F6E
:1041D000B001B39FC001A39F700D811D1124911DDB
:1041E000B29F700D811D1124911D08955058BB2759
:1041F000AA270E940E210C94A2200E94942038F03D
:104200000E949B2020F039F49F3F19F426F40C946F
:1042100091200EF4E095E7FB0C948B20E92F0E948F
:10422000B32058F3BA17620773078407950720F085
:1042300079F4A6F50C94D5200EF4E0950B2EBA2F48
:10424000A02D0B01B90190010C01CA01A00111249C
:10425000FF27591B99F0593F50F4503E68F11A1648
:10426000F040A22F232F342F4427585FF3CF4695D9
:1042700037952795A795F0405395C9F77EF41F16FB
:10428000BA0B620B730B840BBAF09150A1F0FF0FC5
:10429000BB1F661F771F881FC2F70EC0BA0F621FB1
:1042A000731F841F48F4879577956795B795F795A1
:1042B0009E3F08F0B0CF9395880F08F09927EE0F36
:1042C0009795879508950E9477210C94A2200E94CB
:1042D0009B2058F00E94942040F029F45F3F29F081
:1042E0000C948B2051110C94D6200C9491200E9498
:1042F000B32068F39923B1F3552391F3951B550B24
:10430000BB27AA2762177307840738F09F5F5F4FA8
:10431000220F331F441FAA1FA9F335D00E2E3AF0E7
:10432000E0E832D091505040E695001CCAF72BD0FF
:10433000FE2F29D0660F771F881FBB1F2617370750
:104340004807AB07B0E809F0BB0B802DBF01FF2782
:1043500093585F4F3AF09E3F510578F00C948B20B4
:104360000C94D6205F3FE4F3983ED4F3869577957E
:104370006795B795F7959F5FC9F7880F911D96953B
:10438000879597F90895E1E0660F771F881FBB1F97
:10439000621773078407BA0720F0621B730B840B44
:1043A000BA0BEE1F88F7E09508950E94DC2168940F
:1043B000B1110C94D62008950E94BB2088F09F571D
:1043C00098F0B92F9927B751B0F0E1F0660F771F39
:1043D000881F991F1AF0BA95C9F714C0B13091F02F
:1043E0000E94D520B1E008950C94D520672F782F36
:1043F0008827B85F39F0B93FCCF3869577956795F4
:10440000B395D9F73EF490958095709561957F4F5F
:104410008F4F9F4F08950E94F71F08F48FEF089564
:10442000DB018F939F930E94DC20BF91AF91A29FED
:10443000800D911DA39F900DB29F900D11240895A2
:1044400097FB072E16F4009407D077FD09D00E9441
:104450003C2207FC05D03EF4909581959F4F08952E
:10446000709561957F4F0895EE0FFF1F881F8BBFDA
:104470000790F691E02D1994AA1BBB1B51E107C0D0
:10448000AA1FBB1FA617B70710F0A61BB70B881FE4
:10449000991F5A95A9F780959095BC01CD01089573
:1044A0000F931F93CF93DF938230910510F482E036
:1044B00090E0E091A405F091A50530E020E0B0E0A7
:1044C000A0E0309799F42115310509F44AC0281B62
:1044D000390B24303105D8F58A819B81611571052E
:1044E00089F1FB0193838283FE0111C040815181D8
:1044F0000281138148175907E0F04817590799F4CA
:10450000109761F012960C93129713961C933296A3
:10451000CF01DF91CF911F910F9108950093A405D2
:104520001093A505F4CF2115310551F0421753071B
:1045300038F0A901DB019A01BD01DF01F801C1CF0B
:10454000EF01F9CF9093A5058093A405CDCFFE018F
:10455000E20FF31F8193919322503109398328830D
:10456000D7CF2091A2053091A305232B41F42091B0
:104570000202309103023093A3052093A2052091FB
:104580000002309101022115310541F42DB73EB7EB
:104590004091040250910502241B350BE091A205C5
:1045A000F091A305E217F307A0F42E1B3F0B281789
:1045B000390778F0AC014E5F5F4F2417350748F09C
:1045C0004E0F5F1F5093A3054093A20581939193D3
:1045D0009FCFF0E0E0E09CCFCF93DF930097E9F02E
:1045E000FC01329713821282A091A405B091A50517
:1045F000ED0130E020E01097A1F420813181820F9D
:10460000931F2091A2053091A3052817390709F0BF
:1046100061C0F093A305E093A205DF91CF910895C7
:10462000EA01CE17DF07E8F54A815B819E0141155B
:104630005105B1F7E901FB83EA8349915991C40F10
:10464000D51FEC17FD0761F4808191810296840FDC
:10465000951FE90199838883828193819B838A8353
:10466000F0E0E0E012968D919C9113970097B9F5D8
:104670002D913C911197CD010296820F931F2091AD
:10468000A2053091A3052817390739F6309751F55F
:104690001092A5051092A405B093A305A093A205BE
:1046A000BCCFD383C28340815181840F951FC8172B
:1046B000D90761F44E5F5F4F88819981480F591F78
:1046C000518340838A819B819383828321153105A5
:1046D00009F0B0CFF093A505E093A4059ECFFD01AE
:1046E000DC01C0CF13821282D7CF4F925F926F92BC
:1046F0007F928F929F92AF92BF92CF92DF92EF9272
:10470000FF920F931F93CF93DF938C01009799F43F
:10471000CB01DF91CF911F910F91FF90EF90DF9030
:10472000CF90BF90AF909F908F907F906F905F9051
:104730004F900C945022FC01E60FF71F9C01225071
:104740003109E217F30708F4AEC0D901CD91DC912D
:104750001197C617D70720F1C530D10578F0CE01E3
:1047600004978617970750F0C61BD70B2297C19363
:10477000D1936D937C93CF010E94EC22C801DF910D
:10478000CF911F910F91FF90EF90DF90CF90BF904E
:10479000AF909F908F907F906F905F904F90089513
:1047A0005B01AC1ABD0A4C018C0E9D1EA091A405A4
:1047B000B091A505512C412CF12CE12C109731F52D
:1047C0008091A2059091A3058815990509F05CC018
:1047D0004616570608F058C08091000290910102D9
:1047E000009741F48DB79EB74091040250910502A5
:1047F000841B950BE817F90708F055C0F093A30543
:10480000E093A205F90171836083B8CF8D919C91EB
:10481000119712966C90129713967C901397A81587
:10482000B90559F56C0142E0C40ED11CCA14DB0471
:1048300020F1AC014A195B09DA011296159780F054
:104840006282738251834083D9016D937C93E1141A
:10485000F10471F0D7011396FC93EE9312978ECF6B
:1048600022968C0F9D1FF90191838083F301EFCF76
:10487000F093A505E093A40581CF4816590608F4E6
:104880002C017D01D3019ACFCB010E9450227C01E3
:10489000009749F0AE01B8010E945624C8010E9459
:1048A000EC2287016BCF10E000E068CFFB01DC0158
:1048B00002C001900D9241505040D8F70895FB017D
:1048C000DC018D91019080190110D9F3990B0895A5
:1048D000FB01DC0101900D920020E1F7089512E048
:1048E000C6E2D2E000E006C0802FFE010E94342222
:1048F0002196011DC732D10780E00807A9F7F89477
:02490000FFCFE7
:104902000000A605800000000000D30424046A040D
:1049120020059B0479048D04000000002E06010688
:104922005D06D705FA05E705D8050D0A00473000F0
:104932004D3432004D323830004D323630004D3178
:1049420038004D31370076002053696D706C652058
:0C4952004720636F6465004F4B2100009C
:00000001FF
