:100000000C9460020C9491020C9491020C94910255
:100010000C9491020C9491020C9491020C94910214
:100020000C9491020C9491020C9491020C94910204
:100030000C9491020C9491020C9491020C949102F4
:100040000C9491020C9491020C9491020C949102E4
:100050000C9491020C9491020C9491020C949A0FBE
:100060000C9491020C940E100C94E40F0C949102D9
:100070000C9491020C9491020C9491020C949102B4
:100080000C9491020C9491020C9491020C944410E3
:100090000C9491020C9491020C9491020C94910294
:1000A0000C9491020C9491020C9491020C94910284
:1000B0000C9491020C9491020C9491020C94910274
:1000C0000C9491020C9491020C9491020C94910264
:1000D0000C9491020C9491020C9491020C94910254
:1000E0000C949102084AD73B3BCE016E84BCBFFD05
:1000F000C12F3D6C74319ABD56833DDA3D00C77FF8
:1001000011BED9E4BB4C3E916BAAAABE0000008090
:100110003F072C7AA5BA6CC590DA3B9365FC8BBC83
:1001200053F810FD3C5692834DBD879D3AB63DCBAA
:10013000C9BF5BBE73DA0FC93F05A84CCDB2D44E20
:10014000B93836A9020C50B9918688083CA6AAAAEB
:100150002ABE000000803F000C9497080C94E90A26
:100160000C94A7050C94FD020C9444060C94D10247
:100170000C942C050C9427030C94CD0A0C94F10AD2
:100180000C946F140C940D040C94CB060C94B50ACB
:100190000C94CC060C945A040C94B3030C94D60221
:1001A0000C9486050C9419030C94A8060C94580A18
:1001B0000C94500B0C942A050C94F0020C94EC0255
:1001C0000C94FC050C94F4020C9422050C94A403EA
:1001D0000C940F0B0C942E050C94DF040C94550B0F
:1001E0000C940B030C940F030C94D70A0C94050B7E
:1001F0000C9426050C94D5030C94BD060C94E802CF
:100200000C94AF060C9415030C9407030C945E0336
:100210000C94320B0C94B6060C94BE0A0C94560A3D
:100220000C9401030C94460B0C9428050C941D03AC
:100230000C9424050C94A1060C94F7020C94DB0595
:100240000C94AB040C9482060C942E060C9423039D
:100250000C943C0B0C94E10A0C94280B0C941E0B90
:100260000C946D100C94C4060C94C7030C943005C8
:100270000C94FB0A0C94C30A0C9499060C94FD048C
:100280004E414E494E495459494E46CDCCCC3D0A7B
:10029000D7233C17B7D13877CC2B329595E6241F5E
:1002A000B14F0A000020410000C84200401C462017
:1002B000BCBE4CCA1B0E5AAEC59D7400407A10F3EA
:1002C0005A00A0724E18090010A5D4E80000E87684
:1002D00048170000E40B54020000CA9A3B000000DB
:1002E000E1F505000080969800000040420F0000F4
:1002F00000A08601000000102700000000E80300B5
:100300000000006400000000000A0000000000017E
:1003100000000000002C76D888DC674F0823DFC17E
:10032000DFAE59E1B1B796E5E3E453C63AE6519939
:100330007696E8E6C28426EB898C9B62ED407C6F62
:10034000FCEFBC9C9F40F2BAA56FA5F490055A2A19
:10035000F75C936B6CF9676DC11BFCE0E40D47FE25
:10036000F520E6B500D0ED902E030094357705001A
:1003700080841E080000204E0A000000C80C3333A1
:1003800033330F986E12831141EF8D2114893BE6B0
:100390005516CFFEE6DB18D1844B381BF77C1D9039
:1003A0001DA4BBE424203284725E228100C9F124A2
:1003B000ECA1E53D2700002100240027002A002DA4
:1003C000003000330001010000040107010A0100B0
:1003D000002200250028002B002E003100340002EE
:1003E000010000050108010B0105050505070508C9
:1003F000080808020202020A0A08080404040401A8
:1004000001010101010101030303030303030304C9
:100410000707070C0C0C0C0C0C0C0C020202020659
:10042000060606060606060B0B0B0B0B0B0B0B0149
:1004300002102020080810204010204080020102F5
:1004400001080402010102040810204080804020BD
:1004500010080402018004020180402010080402F8
:100460000108040201010204081020408001020476
:10047000081020408000000A0B02090C0D0E08072E
:100480000304010000000000000000000000000064
:10049000000000000000000000000000000000005C
:1004A0000012111000000000000000000000000019
:1004B0000000000000000000000000006D106F143C
:1004C00011241FBECFEFD1E2DEBFCDBF00E00CBFD5
:1004D00024E0ACE5B2E001C01D92A039B207E1F71B
:1004E00012E0A0E0B2E0E0E0FEE300E00BBF02C0FB
:1004F00007900D92AC35B107D9F712E0CFE5D2E005
:1005000000E006C021970109802FFE010E94A51C72
:10051000CE35D10780E00807A9F70E94FB100C94A4
:10052000EE1E0C940000EAE1F3E09081981739F098
:10053000359693E0E333F907C1F780E0089581E051
:100540000895282F30E0F901EB58FB4F9491F90101
:10055000E15DFB4F449127513C4FF9012491222347
:1005600009F435C0992311F191509231F8F4E92F33
:10057000F0E08827E154FD4F8F4F0C94A51CF0024A
:10058000F402D102E802EC02D602F702FD020103F6
:1005900007030B030F0315031903D6021D032303DF
:1005A0002703809180008F7780938000E22FF0E016
:1005B000EE0FFF1FE153FC4FA591B4918FB7F89454
:1005C000EC91611148C040954E234C938FBF089524
:1005D000809180008F7DE8CF80918000877FE4CF7D
:1005E00084B58F7784BDE2CF84B58F7DFBCF8091BA
:1005F000B0008F778093B000D9CF8091B0008F7D0D
:10060000F9CF809190008F7780939000CFCF809129
:1006100090008F7DF9CF80919000877FF5CF8091FA
:10062000A0008F778093A000C1CF8091A0008F7D24
:10063000F9CF8091A000877FF5CF809120018F773F
:1006400080932001B3CF809120018F7DF9CF8091DD
:100650002001877FF5CF4E2BB8CFCF93DF9390E06B
:10066000FC01E15DFB4F249187519C4FFC0184917B
:100670008823D1F090E0880F991FFC01EB54FC4FC8
:10068000A591B491FC01E153FC4FC591D491623026
:1006900071F49FB7F8943C91822F809583238C93BB
:1006A000E8812E2B28839FBFDF91CF9108958FB7CC
:1006B000F894EC912E2B2C938FBFF6CFAF92BF9274
:1006C000CF92DF92EF92FF920F931F93CF93DF931E
:1006D0006C017B018B01040F151FEB015E01AE184D
:1006E000BF08C017D10759F06991D601ED91FC916F
:1006F0000190F081E02DC6011995892B79F7C5018C
:10070000DF91CF911F910F91FF90EF90DF90CF90ED
:10071000BF90AF900895CF93DF93FC014481558142
:10072000608171818DE792E00E945E03EC0142E0FE
:1007300050E068E372E08DE792E00E945E038C0F68
:100740009D1FDF91CF910895FC01538D448D252F7E
:1007500030E0842F90E0821B930B541710F0CF965B
:10076000089501970895FC01918D828D981761F08D
:10077000A28DAE0FBF2FB11D5D968C91928D9F5FA4
:100780009F73928F90E008958FEF9FEF0895FC0183
:10079000918D828D981731F0828DE80FF11D858D36
:1007A00090E008958FEF9FEF0895FC01918D228DC9
:1007B000892F90E0805C9F4F821B91098F7399274E
:1007C00008958DE792E00E94D50321E0892B09F47A
:1007D00020E0822F0895FC01A48DA80FB92FB11D30
:1007E000A35ABF4F2C91848D90E001968F73992767
:1007F000848FA689B7892C93A089B1898C91837045
:1008000080648C93938D848D981306C00288F3893D
:10081000E02D80818F7D80830895EF92FF920F936A
:100820001F93CF93DF93EC0181E0888F9B8D8C8D9C
:1008300098131AC0E889F989808185FF15C09FB790
:10084000F894EE89FF896083E889F9898081837053
:10085000806480839FBF81E090E0DF91CF911F9102
:100860000F91FF90EF900895F62E0B8D10E00F5F23
:100870001F4F0F731127E02E8C8D8E110CC00FB6F9
:1008800007FCFACFE889F989808185FFF5CFCE0191
:100890000E94EB03F1CFEB8DEC0FFD2FF11DE35A1E
:1008A000FF4FF0829FB7F8940B8FEA89FB89808114
:1008B0008062CFCFCF93DF93EC01888D8823B9F08E
:1008C000AA89BB89E889F9898C9185FD03C080815B
:1008D00086FD0DC00FB607FCF7CF8C9185FFF2CFD8
:1008E000808185FFEDCFCE010E94EB03E9CFDF9140
:1008F000CF91089580E090E0892B29F00E94E103D8
:1009000081110E94000080E090E0892B49F080E096
:1009100090E0892B29F00E94000081110E940000C4
:1009200080E090E0892B49F080E090E0892B29F06D
:100930000E94000081110E94000080E090E0892B5D
:1009400049F080E090E0892B29F00E94000081119D
:100950000C9400000895CF93DF93FC01278122239C
:1009600059F1EC0161E080850E942D0361E08985E9
:100970000E942D038F81843011F08830B1F461E042
:100980008A850E942D0361E08B850E942D038FA52F
:100990008F3F91F061E00E942D036EA581E06827F2
:1009A0008FA5DF91CF910C94A102833011F0863096
:1009B00071F761E08A85E9CFDF91CF910895CF93F8
:1009C000DF93FC0127812223A9F0EC010190F08143
:1009D000E02D0284F385E02D60E019958FA58F3F0F
:1009E00049F061E00E942D036EA58FA5DF91CF91A4
:1009F0000C94A102DF91CF910895DC01ED91FC915F
:100A000011972285338547705527662777274150F0
:100A1000510961097109473051056105710570F48B
:100A2000FA018827E95EFA4F8F4F0C94A51C220526
:100A30002405260528052A052C052E0561E0CD0193
:100A4000F901199465E0FBCF64E0F9CF66E0F7CFD8
:100A500062E0F5CF6AE0F3CF68E0F1CF69E0EFCF75
:100A6000CF93DF93EC01CB01BA0126E030E040E008
:100A700050E00E94861C623071058105910589F164
:100A80006CF46115710581059105D1F06130710536
:100A900081059105F9F0DF91CF91089564307105DA
:100AA0008105910561F124F165307105810591059C
:100AB00091F7E881F9810284F385E02D66E006C0B4
:100AC000E881F9810284F385E02D64E0CE01DF91B5
:100AD000CF911994E881F9810284F385E02D65E0D6
:100AE000F5CFE881F9810284F385E02D61E0EECF56
:100AF000E881F9810284F385E02D63E0E7CFE881A6
:100B0000F9810284F385E02D62E0E0CFDC01ED9114
:100B1000FC910284F385E02D4370552766277727E3
:100B2000423051056105710571F043305105610591
:100B3000710559F0413051056105710511F065E00D
:100B4000199466E0FDCF6AE0FBCF69E0F9CFCF935F
:100B5000DF93EC01CB01BA0123E030E040E050E04C
:100B60000E94861C613071058105910599F0623003
:100B7000710581059105A9F0672B682B692BC1F4DC
:100B8000E881F9810284F385E02D64E0CE01DF91F4
:100B9000CF911994E881F9810284F385E02D61E019
:100BA000F5CFE881F9810284F385E02D62E0EECF94
:100BB000DF91CF910895DC01ED91FC910284F385E2
:100BC000E02D437055276627772742305105610590
:100BD000710571F0433051056105710559F04130DF
:100BE00051056105710511F062E0199463E0FDCFD4
:100BF00061E0FBCF60E0F9CFCF93DF93EC01E881B8
:100C0000F9810284F385E02D8A8160E0811162E040
:100C1000CE011995E881F9810284F385E02D8A815E
:100C200061E0811163E0CE0119958CA59DA582300C
:100C3000910538F0880F991F880F991F0597019724
:100C4000F1F7E881F9810284F385E02D8A8160E083
:100C5000811162E0CE01DF91CF911994CF93DF93A0
:100C6000EC0120E030E0A901688D798D8A8D9B8DA3
:100C70000E94CB1B18162CF4E8A9F9A9DF91CF919B
:100C80001994EAA9FBA9FACFCF92DF92EF92FF92D3
:100C90000F931F93CF93DF93DC011796CC91C43051
:100CA00039F0C83059F1C33019F0C63049F1C2E00B
:100CB0008C01085F1F4FF12CE12CC62ED12CD1E006
:100CC000F8016481C6010E2C02C0959587950A949F
:100CD000E2F780FD6D270F5F1F4F80810E94A10208
:100CE000BFEFEB1AFB0AEC1658F3DF91CF911F917F
:100CF0000F91FF90EF90DF90CF900895C4E0D8CF90
:100D0000C3E0D6CFDC011796EC911797E93008F0D5
:100D100042C0F0E08827E057F94F8F4F0C94A51C94
:100D20009906A106A806AF06B606CB06BD06CB06F9
:100D3000C406ED91FC9111970684F785E02DCD0155
:100D40001994ED91FC9111970088F189E02DF7CF6E
:100D5000ED91FC9111970288F389E02DF0CFED9190
:100D6000FC9111970488F589E02DE9CFED91FC9174
:100D700011970688F789E02DE2CFED91FC9111974C
:100D8000008CF18DE02DDBCFED91FC911197028C61
:100D9000F38DE02DD4CF08954F925F926F927F92A2
:100DA0008F929F92AF92BF92CF92DF92EF92FF927B
:100DB0000F931F93CF93DF93EC01CC88DD88EE88EF
:100DC000FF8888899989AA89BB89C81AD90AEA0A39
:100DD000FB0A688D798D8A8D9B8D9B01AC010E94E9
:100DE00010194B015C0168A179A18AA19BA19B010B
:100DF000AC010E94FD199B01AC01C501B4010E9428
:100E00009D1A0E940F1BC114D104E104F10409F0E2
:100E1000B6C062307105810591050CF0D0C01B820F
:100E20001C821D821E82188E198E1A8E1B8E1CAA81
:100E30001DAA1EAA1FAAC12CD12C7601C701B6017A
:100E4000DF91CF911F910F91FF90EF90DF90CF90A6
:100E5000BF90AF909F908F907F906F905F904F90DA
:100E600008951016110612061306B4F46C157D05CC
:100E70008E059F051CF42A812111A1C09B01AC01A4
:100E800088279927DC01821B930BA40BB50B8CAB35
:100E90009DABAEABBFAB93C001151105210531056C
:100EA00009F48DC06C157D058E059F050CF087C07B
:100EB0008A81882309F483C0309520951095019587
:100EC0001F4F2F4F3F4F0CAB1DAB2EAB3FAB77C02F
:100ED000011511052105310509F471C088249924F3
:100EE00054018C189D08AE08BF08681579058A055D
:100EF0009B050CF064C08A81811161C0DDCFCCAC50
:100F0000DDACEEACFFACA7019601C701B6010E94B3
:100F1000FD192B013C01C501B4010E94B11820E06C
:100F200030E040E850E40E94101920E030E040E852
:100F30005FE30E94FD199B01AC01C301B2010E9455
:100F40009D1A9B01AC01C701B6010E94FC193B012F
:100F50006C01FE01E05CFF4FE080F18002811381B3
:100F60009701A8010E94CB1B181614F47301860187
:100F7000C701D8018CAF9DAFAEAFBFAF3AC00CA9CF
:100F80001DA92EA93FA91C141D041E041F040CF446
:100F900068CF10161106120613060CF099CF002721
:100FA000112798010C191D092E093F0960177107B7
:100FB000820793070CF062CF2A8121115FCF8CA8A2
:100FC0009DA8AEA8BFA881149104A104B10409F0A2
:100FD00096CF88AD99ADAAADBBAD8CAF9DAFAEAF8E
:100FE000BFAF81E01C141D041E041F040CF080E040
:100FF0008A833FEF831A930AA30AB30A8CAA9DAA95
:10100000AEAABFAA8CAC9DACAEACBFACC501B4015E
:101010000E94161B6B017C01CB82DC82ED82FE827A
:10102000A501940160E074E284E799E40E949D1AAE
:10103000688F798F8A8F9B8F2A812111FFCE9058DC
:10104000688F798F8A8F9B8FF9CECF92DF92EF9244
:10105000FF920F931F93CF93DF93EC016A017B0103
:1010600020E030E0A901CB01B6010E94AA1887FF59
:1010700004C0F7FAF094F7F8F094A70196016C8D8C
:101080007D8D8E8D9F8D0E94AA18882309F446C0FD
:10109000CC8EDD8EEE8EFF8E8E01005C1F4FA70181
:1010A000960160E074E284E799E40E949D1AF801D9
:1010B00060837183828393838CA99DA9AEA9BFA904
:1010C000181619061A061B064CF5688D798D8A8D3F
:1010D0009B8D9B01AC010E9410196B017C0168A1E2
:1010E00079A18AA19BA19B01AC010E94FD199B01E2
:1010F000AC01C701B6010E949D1A0E940F1B6CAB88
:101100007DAB8EAB9FABCE01DF91CF911F910F9145
:10111000FF90EF90DF90CF900C94CC06DF91CF91B1
:101120001F910F91FF90EF90DF90CF900895089559
:101130008091430390914403009711F00C94A11403
:1011400060E070E0CB0108958F929F92AF92BF92C2
:10115000CF92DF92EF92FF92CF93DF93EC018AE080
:1011600092E09983888382E08F83188A198A1A8A89
:101170001B8A1C8A1D8A1E8A1F8A188E198E1A8E37
:101180001B8E1C8E1D8E1E8E1F8E18A219A21AA2D7
:101190001BA2C12CD12C80E8E82E8FE3F82ECCA224
:1011A000DDA2EEA2FFA21B821C821D821E8281E0B4
:1011B00090E09DA78CA78FEF8FA718A619A61AA657
:1011C0001BA66887498784E08A8785E08B871EA6EF
:1011D0001CAA1DAA1EAA1FAA18AE19AE1AAE1BAED3
:1011E0001CAE1DAE1EAE1FAEFE01E05CFF4FC08206
:1011F000D182E282F3821A821C861D861E861F8699
:10120000CE010E94AB0488A099A0AAA0BBA0A70110
:101210009601C501B4010E94AA188823F9F06CA9AF
:101220007DA98EA99FA90E94B118A50194010E94D1
:1012300010190E940F1B6CAB7DAB8EAB9FAB86E889
:1012400096E6A9E6B9E488AF99AFAAAFBBAFC8A24A
:10125000D9A2EAA2FBA2CE010E94CC0640E050E057
:1012600060E87FE3CE01DF91CF91FF90EF90DF90B8
:10127000CF90BF90AF909F908F900C942508CF9304
:10128000DF93EC01A881B981EB01E881F981109726
:10129000F1F03097B1F4EC018C819D81892BC9F07C
:1012A0008C9190E00BC0DB0114968D919C91892B61
:1012B00081F0808190E0919581959109DF91CF91A6
:1012C0000895BF01CD01DF91CF910C94DE1E3097C0
:1012D00051F790E080E0F2CF0F931F93CF93DF930D
:1012E000EC0188819981009759F02A813B8126176A
:1012F000370730F081E0DF91CF911F910F91089572
:101300008B016F5F7F4F0E94F41D009759F0998306
:1013100088831B830A832C813D81232B59F7FC0191
:101320001082E8CF80E0E7CFCF93DF93EC01888194
:101330009981009711F00E946B1D198218821D82FD
:101340001C821B821A82DF91CF910895EF92FF9247
:101350000F931F93CF93DF93EC01FB01E080F180AB
:10136000E114F10411F10481158101151105A9F0B1
:101370008C819D81080F191FB801CE010E946C0954
:10138000882399F0288139818C819D81B701820F52
:10139000931F0E94E71E1D830C83CE01DF91CF9126
:1013A0001F910F91FF90EF900895CE010E94940934
:1013B000F4CFEF92FF920F931F93CF93DF93EC0143
:1013C0007B018A01BA010E946C0981110BC0CE0118
:1013D0000E949409CE01DF91CF911F910F91FF9050
:1013E000EF9008951D830C83B701888199810E9435
:1013F000E71EF0CFFB0101900020E9F73197AF0124
:10140000461B570B0C94D909CF93DF931F921F9261
:10141000CDB7DEB7FC0111821082138212821582D1
:10142000148269831A82BE016F5F7F4F0E94FA099E
:101430000F900F90DF91CF910895CF93DF93EC0140
:10144000FB018617970749F060817181611571056D
:1014500041F0448155810E94D909CE01DF91CF919D
:1014600008950E949409F9CFFC0111821082138221
:101470001282158214820C941D0AFC0111821082C2
:101480001382128215821482FB0101900020E9F779
:101490003197AF01461B570B0C94D909FC01808191
:1014A0009181009711F00C946B1D08950C946B1DA5
:1014B0000F931F93CF93DF9383E50E9493028823BA
:1014C00009F457C0EAE1F3E090E080E020812335A1
:1014D000F1F425E0289FF001299FF00D1124E65E2C
:1014E000FC4F61817281838194810E94D81BEB0142
:1014F0008B0161E08EE10E942D03209789F460E06A
:101500008EE1DF91CF911F910F910C94A102019672
:10151000359685309105D1F660E070E0CB01E5CFDE
:10152000CF3FD10511F461E0EBCFE3E9F4E0E491C2
:10153000E150E23108F0B4C0F0E08827ED55F54FF6
:101540008F4F0C94A51CB50ABE0AC30ACD0AD70A50
:10155000500BE10AE90AF10AFB0A050B0F0B1E0BFF
:10156000280B500B320B3C0B460B84B5806884BDB6
:10157000C7BDDF91CF911F910F91089584B580620F
:1015800084BDC8BDF6CF80918000806880938000C4
:10159000D0938900C0938800ECCF80918000806256
:1015A00080938000D0938B00C0938A00E2CF80911B
:1015B0008000886080938000D0938D00C0938C0061
:1015C000D8CF8091B00080688093B000C093B30002
:1015D000D0CF8091B00080628093B000C093B400FF
:1015E000C8CF80919000806880939000D09399003C
:1015F000C0939800BECF809190008062809390004D
:10160000D0939B00C0939A00B4CF809190008860E3
:1016100080939000D0939D00C0939C00AACF8091AE
:10162000A00080688093A0008091A0008F7B8093B1
:10163000A000D093A900C093A8009BCF8091A000E8
:1016400080628093A000D093AB00C093AA0091CF9A
:101650008091A00088608093A000D093AD00C093DB
:10166000AC0087CF80912001806880932001D093C7
:101670002901C09328017DCF809120018062809351
:101680002001D0932B01C0932A0173CF80912001B8
:10169000886080932001D0932D01C0932C0169CFE5
:1016A000003811050CF03FCF2ACF2F923F924F9276
:1016B0005F926F927F928F929F92AF92BF92CF92E2
:1016C000DF92EF92FF920F931F93CF93DF93CDB7EB
:1016D000DEB7A4970FB6F894DEBF0FBECDBF88E586
:1016E0000E9493028823E1F0EAE1F3E090E080E0D9
:1016F0002081283509F06BC225E0289FF001299F41
:10170000F00D1124E65EFC4F81819281A381B481AA
:101710008093700290937102A0937202B09373024F
:1017200089E50E9493028823E1F0EAE1F3E090E08A
:1017300080E02081293509F054C225E0289FF0017E
:10174000299FF00D1124E65EFC4F81819281A381D7
:10175000B48180936C0290936D02A0936E02B0935B
:101760006F028AE50E9493028823E1F0EAE1F3E048
:1017700090E080E020812A3509F03DC225E0289FD5
:10178000F001299FF00D1124E65EFC4F81819281CA
:10179000A381B4818093680290936902A0936A0246
:1017A000B0936B0285E40E9493028823E1F0EAE1A2
:1017B000F3E090E080E02081253409F026C225E0A6
:1017C000289FF001299FF00D1124E65EFC4F8181D6
:1017D0009281A381B4818093640290936502A09367
:1017E0006602B093670220916402309165024091D5
:1017F0006602509167022D8B3E8B4F8B588F8091E4
:10180000680290916902A0916A02B0916B02898F7F
:101810009A8FAB8FBC8F40906C0250906D0260909D
:101820006E0270906F0220917002309171024091AF
:10183000720250917302298B3A8B4B8B5C8BCA01DD
:10184000B9010E9410196B017C01A3019201C3012F
:10185000B2010E9410199B01AC01C701B6010E94A0
:10186000FD1920E030E14BE457E40E94FC1920E828
:1018700030E941E956E40E94FC1920E034E243E7F4
:1018800057E40E949D1A0E94EB196B017C01298983
:101890003A894B895C89C301B2010E949D1A0E945A
:1018A000691A6D8F7E8F8F8F98A3C701B6010E9432
:1018B0000B1C4B015C01C701B6010E94981A69A379
:1018C0007AA38BA39CA320E030E848E053E4C50151
:1018D000B4010E9410194B015C0120E030E848E09F
:1018E00053E469A17AA18BA19CA10E94101920E068
:1018F00030E044E653E40E94FD199B01AC01C501B0
:10190000B4010E949D1A0E94691A4B015C0120E0FB
:1019100030E044E353E4C701B6010E9410192BEDF7
:101920003FE049E450E40E949D1A6B017C01C092A3
:101930006002D0926102E0926202F0926302A5011D
:1019400094016D8D7E8D8F8D98A10E94FC1920E0F1
:1019500030E044E353E40E9410192BED3FE049E4EA
:1019600050E40E949D1A4B015C0120E030E0A90187
:1019700069897A898B899C890E94AA18182F111F5E
:101980001127111F20E030E0A901C301B2010E941C
:10199000CB1B181614F4111142C180925C02909274
:1019A0005D02A0925E02B0925F0220E030E0A901E9
:1019B000C301B2010E94AA18082F001F0027001FB0
:1019C0001123C1F00023B1F020E030E044E353E400
:1019D00060915C0270915D0280915E0290915F0265
:1019E0000E94FD1960935C0270935D0280935E0219
:1019F00090935F0220E030E0A90169897A898B89A0
:101A00009C890E94CB1B181664F5002351F1C090ED
:101A10006002D0906102E0906202F0906302209137
:101A20005C0230915D0240915E0250915F0260E085
:101A300070E087E893E40E94FC1960935C02709365
:101A40005D0280935E0290935F02F7FAF094F7F8DC
:101A5000F094C0926002D0926102E0926202F09231
:101A6000630220E030E0A901C301B2010E94AA187C
:101A7000811118C01123B1F020E030E047E853E4B1
:101A800060915C0270915D0280915E0290915F02B4
:101A90000E94FD1960935C0270935D0280935E0268
:101AA00090935F0220E030E04AEA54E460915C02E7
:101AB00070915D0280915E0290915F020E94101908
:101AC0000E94D81B69837A838B839C8320E030E05B
:101AD00049EB54E46091600270916102809162026E
:101AE000909163020E9410190E94D81B6D837E831F
:101AF0008F83988720E030E04AEF53E4698D7A8D38
:101B00008B8D9C8D0E9410190E94D81B69877A8743
:101B10008B879C8720E030E048EC53E46D897E8918
:101B20008F89988D0E9410190E94D81B6D877E871F
:101B30008F87988B909079038E010F5F1F4FE5E69A
:101B4000CE2EE3E0DE2EA12C198A1D8A612CB12C49
:101B50009A1409F481C0D8016D917D918D919D9168
:101B60008D01F601E190F1906F01D70150962D9112
:101B70003D914D915C915397621B730B840B950BB8
:101B800097FF07C090958095709561957F4F8F4F17
:101B90009F4F0E94B118F701248D358D468D578DCA
:101BA0000E949D1A762E872E7C0129893D89462D1B
:101BB0005B2D0E94CB1B181624F079888D88E62CAB
:101BC000FB2CA394798A8D8A6E2CBF2CC1CF0196F1
:101BD00035968530910509F08BCD80E090E0DC01F1
:101BE00097CD019635968530910509F0A2CD80E01C
:101BF00090E0DC01AECD019635968530910509F077
:101C0000B9CD80E090E0DC01C5CD019635968530F8
:101C1000910509F0D0CD80E090E0DC01DCCDA5019C
:101C2000940160E070E084EB92E40E94FC19609300
:101C30005C0270935D0280935E0290935F02F7FAFC
:101C4000F094F7F8F094C0926002D0926102E092B2
:101C50006202F0926302A9CE20E030E0A901698916
:101C60007D89862D9B2D0E94CB1B18160CF0C1C0C0
:101C7000198E80917903F98DF81708F0BAC00F2FEB
:101C800010E0F801EE0FFF1FEE0FFF1F21E030E024
:101C90002C0F3D1FE20FF31F2080318042805380C4
:101CA000000F111FF801EB59FC4FE080F180F701A4
:101CB00080899189A289B389A2019101281B390BDE
:101CC0004A0B5B0BCA01B9010E94B11829893D89F1
:101CD000462D5B2D0E949D1A762E872E982EA92EBA
:101CE000F70184899589A689B789281639064A0695
:101CF0005B0661F0248A358A468A578A0190F08112
:101D0000E02D0084F185E02DC7011995F801EB590C
:101D1000FC4F00811181F801208D318D428D538D52
:101D2000672D782D892D9A2D0E94AA188823E1F11C
:101D3000D8015C962D903D904D905C905F9772011C
:101D40006101F7FAF094F7F8F094A7019601672D76
:101D5000782D892D9A2D0E94AA1887FD10C0A20106
:101D60009101672D782D892D9A2D0E94CB1B720130
:101D70006101181624F0C72CD82CE92CFA2C20E08D
:101D800030E0A901C701B6010E94AA18811110C054
:101D9000F8011382148215821682D8015896CD92CA
:101DA000DD92ED92FC925B97B98DBF5FB98F61CFE9
:101DB000A701960160E074E284E799E40E949D1A0D
:101DC0009F770E94161BD80113966D937D938D9378
:101DD0009C931697AA24A39420E030E0A901C701A0
:101DE000B6010E94CB1B18160CF0A12CF801A282A0
:101DF000D4CF80E0B12C90917903B91608F07FC060
:101E0000EB2DF0E0EE0FFF1FEB59FC4F008111812D
:101E1000F801C488D588E688F788408951896289A5
:101E20007389C416D506E606F70649F083819481C6
:101E3000A581B681892B8A2B8B2B19F481E0B39471
:101E4000DACF3FB7F8948091740290917502A09117
:101E50007602B091770226B5A89B05C02F3F19F0F6
:101E60000196A11DB11D3FBFBA2FA92F982F88271A
:101E70006C017D01C20ED11CE11CF11C42E0CC0CB6
:101E8000DD1CEE1CFF1C4A95D1F7F80180A591A539
:101E9000A2A5B3A5B701A601481B590B6A0B7B0B82
:101EA00083819481A581B681481759076A077B070A
:101EB00028F280899189A289B38922812223D9F0CD
:101EC0000196A11DB11D808B918BA28BB38BD80184
:101ED00050964D915D916D917C915397ED91FC9150
:101EE0000484F585E02DC8011995F801C0A6D1A696
:101EF000E2A6F3A6A3CF0197A109B109E4CF81110E
:101F000078CFA4960FB6F894DEBF0FBECDBFDF9199
:101F1000CF911F910F91FF90EF90DF90CF90BF90E6
:101F2000AF909F908F907F906F905F904F903F9079
:101F30002F9008951F920F920FB60F9211242F9396
:101F40003F938F939F93AF93BF938091790290912A
:101F50007A02A0917B02B0917C023091780223E05A
:101F6000230F2D3758F50196A11DB11D209378023E
:101F70008093790290937A02A0937B02B0937C02C3
:101F80008091740290917502A0917602B0917702CF
:101F90000196A11DB11D8093740290937502A093C8
:101FA0007602B0937702BF91AF919F918F913F914D
:101FB0002F910F900FBE0F901F90189526E8230FBA
:101FC0000296A11DB11DD2CF1F920F920FB60F9294
:101FD00011240BB60F922F933F934F935F936F9300
:101FE0007F938F939F93AF93BF93EF93FF938DE76F
:101FF00092E00E94EB03FF91EF91BF91AF919F910F
:102000008F917F916F915F914F913F912F910F90A1
:102010000BBE0F900FBE0F901F9018951F920F923E
:102020000FB60F9211240BB60F922F938F939F939D
:10203000EF93FF93E0918D02F0918E028081E09109
:102040009302F091940282FD1DC0908180919602CE
:102050008F5F8F7320919702821741F0E091960273
:10206000F0E0E358FD4F958F80939602FF91EF913A
:102070009F918F912F910F900BBE0F900FBE0F90DD
:102080001F9018958081F2CF1F920F920FB60F927A
:1020900011240BB60F922F933F934F935F936F933F
:1020A0007F938F939F93AF93BF93EF93FF93F0E052
:1020B000E0E01995FF91EF91BF91AF919F918F91C2
:1020C0007F916F915F914F913F912F910F900BBE38
:1020D0000F900FBE0F901F9018950F931F93CF93E3
:1020E000DF93EDE7F2E01382128288EE93E0A0E046
:1020F000B0E084839583A683B7838AE292E09183DC
:10210000808385EC90E09587848784EC90E09787C6
:10211000868780EC90E0918B808B81EC90E0938BB4
:10212000828B82EC90E0958B848B86EC90E0978B91
:10213000868B118E128E138E148E46E065E086E437
:1021400094E00E94A40849E068E082E094E00E94E4
:10215000A40840E060E08EEB93E00E94A40843E016
:1021600062E08AE793E00E94A408109279036BE38F
:1021700072E08DE493E00E943D0A0DE413E0C5E5B2
:10218000DBE0F801D783C6836EE372E085E593E078
:102190000E943D0AF801D787C68761E472E08DE5A9
:1021A00093E00E943D0A88E59AE0F801978B868BC0
:1021B0006AE372E083E393E00E943D0ACAE1D3E060
:1021C0001F8E18A21CA21BA218A61FA26AE372E00F
:1021D00083E493E00E943D0A18AA1FA61AAA19AA2E
:1021E0001AA309A383E090E09CA38BA3DF91CF9176
:1021F0001F910F910895CF93DF93CDB7DEB7E3978B
:102200000FB6F894DEBF0FBECDBF789484B5826060
:1022100084BD84B5816084BD85B5826085BD85B58A
:10222000816085BD80916E00816080936E00109208
:102230008100809181008260809381008091810083
:102240008160809381008091800081608093800014
:102250008091B10084608093B1008091B000816072
:102260008093B00080919100826080939100809172
:1022700091008160809391008091900081608093B3
:1022800090008091A10082608093A1008091A100C4
:1022900081608093A1008091A00081608093A00064
:1022A00080912101826080932101809121018160D0
:1022B0008093210180912001816080932001809191
:1022C0007A00846080937A0080917A0082608093A3
:1022D0007A0080917A00816080937A0080917A0000
:1022E000806880937A001092C100E0918D02F09195
:1022F0008E0282E08083E0918902F0918A0210824E
:10230000E0918B02F0918C0280E180831092950223
:10231000E0919102F091920286E08083E0918F0239
:10232000F0919002808180618083E0918F02F09132
:102330009002808188608083E0918F02F09190020A
:10234000808180688083E0918F02F091900280818B
:102350008F7D80831BA21AA21DA21CA21FA21EA2F7
:102360008E010F5F1F4F22E044E066E676E686E0CE
:1023700090E40E948314009709F400C2BC01CE01CE
:1023800082960E94FA0966E472E0CE0101960E94EC
:102390003D0ABE016E5D7F4FCE0101960E94A609E7
:1023A0007C01FC0104811581025F1F4FB8010E946E
:1023B0006C09882309F4E7C1F70120813181848108
:1023C000958168E472E0820F931F0E94E71EF70177
:1023D00015830483C7010E948B03CE0101960E94DE
:1023E0004E0ACE0182960E944E0A67E572E083E3B0
:1023F00093E00E94FA098FEF9FEF90934A03809336
:1024000049036AE372E083E493E00E94FA091092C0
:10241000390310923A0383E393E0BAE1EB2EB3E081
:10242000FB2EF70110821182128213821482F5E0D2
:10243000EF0EF11C8E159F05A1F761E089E00E9467
:102440002D0361E088E00E942D0361E08AE00E9494
:102450002D0361E086E00E942D0361E085E00E948B
:102460002D0361E087E00E942D0361E083E00E947C
:102470002D0361E082E00E942D0361E084E00E9470
:102480002D0361E08EE10E942D0362E08CE00E944A
:102490002D0362E08DE00E942D0362E08BE00E943C
:1024A0002D0361E087E00E94A10261E08AE00E94C2
:1024B000A10261E084E00E94A10240E050E46CE1EE
:1024C00076E486E494E00E94250840E050E46CE164
:1024D00076E482E094E00E94250840E050E46CE15C
:1024E00076E48EEB93E00E94250840E050E46CE136
:1024F00076E48AE793E00E942508E0917903EA30C8
:1025000068F481E08E0F80937903F0E0EE0FFF1FF7
:10251000EB59FC4F86E494E091838083E09179034A
:10252000EA3068F481E08E0F80937903F0E0EE0FDB
:10253000FF1FEB59FC4F82E094E091838083E09190
:102540007903EA3068F481E08E0F80937903F0E03C
:10255000EE0FFF1FEB59FC4F8EEB93E091838083CE
:10256000E0917903EA3068F481E08E0F809379037B
:10257000F0E0EE0FFF1FEB59FC4F8AE793E09183E9
:10258000808361E08EE10E942D0360E08EE10E9475
:10259000A102AA24AA94BA2C45E0742E662463945E
:1025A00080913903882309F1E0914103F0914203BE
:1025B000309709F4ECC01995B0924A03A0924903F0
:1025C0006AE372E083E493E00E94FA09109239030F
:1025D00010923A03EAE1F3E0108211821282138230
:1025E00014823596EE15FF05B9F78DE792E00E944B
:1025F000D503892B09F4EBC08DE792E00E94B30369
:10260000182F803291F38A3019F08D3009F0E2C032
:102610006092390310923A030091490310914A03E2
:1026200017FD0DC00E949808709EF001719EF00D7C
:102630001124E65EFC4F61837283838394830AE1F5
:1026400013E0F80161817281838194810E940F1BE4
:10265000CB011BA21AA21DA21CA21FA21EA24AE00D
:10266000BE016F5F7F4F0E94A514BE016F5F7F4F59
:10267000CE0182960E94FA09F8016081CE01889607
:102680000E94040ABE01685D7F4FCE0101960E9440
:10269000340ABE016E5D7F4FCE0101960E94A609ED
:1026A000BC01CE018E960E94340ACE0101960E9492
:1026B0004E0ACE0188960E944E0ACE0182960E9452
:1026C0004E0AD12CC12C80913D0390913E03C81637
:1026D000D9060CF06BC080903B0390903C03C60180
:1026E00023E0880F991F2A95E1F7880E991EB401FF
:1026F000CE0101960E94340AF40186819781988761
:102700008F83F8016081CE0182960E94040A2EA177
:102710003FA18D819E812817390759F4BE016F5F53
:102720007F4FCE0182960E943F0999249394892B72
:1027300009F0912CCE0182960E944E0A992019F040
:10274000EF81F88519952AA93BA98D819E812817CB
:10275000390761F4BE016F5F7F4FCE018E960E94F4
:102760003F09892B19F4EF81F8851995CE0101965F
:102770000E944E0AFFEFCF1ADF0AA5CFCE01829644
:102780000E94940900CEC7010E94940923CE63E3FE
:1027900073E0CE0101960E94340ACE0101960E9498
:1027A0008B03CE0101960E944E0A06CFCE018E9673
:1027B0000E944E0A0B5F1F4FE016F10609F041CF51
:1027C000E0913F03F0914003309709F019950E9482
:1027D0007A04E6CE8B3321F080913A03882319F0F6
:1027E00060923A0302CF80ED810F8A3020F083EDB2
:1027F000810F823000F5612FCE0101960E94040AFC
:1028000063E473E0CE0182960E94340ABE016F5FDA
:102810007F4FCE0182960E94A609BC0183E493E01B
:102820000E941D0ACE0182960E944E0ACE01019698
:102830000E944E0ADACE8FED810F8E3508F0D5CE8C
:102840008FE9810F8A3108F41052C0904903D0906B
:102850004A0324E0C216D1040CF0C7CED7FC25C031
:102860000E9498087C9CF0017D9CF00D1124E65E8E
:10287000FC4F61837283838394836AE372E083E411
:1028800093E00E94FA098091490390914A030196CE
:1028900090934A0380934903789EF001799EF00D4E
:1028A0001124E65EFC4F1083A0CE0E94980820E021
:1028B00030E0A9010E94CB1B1816FCF610924A03C7
:1028C0001092490310921A030E94980860931B0308
:1028D00070931C0380931D0390931E03CECF83E45B
:1028E00093E00E944E0A83E393E00E944E0A8DE536
:1028F00093E00E944E0A85E593E00E944E0A8DE423
:1029000093E00C944E0AEF920F931F93CF93DF93B3
:10291000E80134E047FD34E1042E000C550B57FF6D
:1029200003C0519541955109E32E022F242FAE018A
:102930000E94CA14CE01DF91CF911F910F91EF90A9
:102940000895662777270C944316BB274A3031F445
:10295000992322F4BDE2909581959F4F0C94B11478
:10296000BB27FB015527AA27880F991FAA1FA41769
:1029700010F0A41B83955051B9F7A05DAA3308F05D
:10298000A95DA193009779F7B111B1931192CB0191
:102990000C949A188F929F92AF92BF92CF92DF922F
:1029A000EF92FF920F931F93CF93DF9300D000D04D
:1029B00000D0CDB7DEB76A01F22EB02E102FFBE3A8
:1029C000AF2EA01608F41BE31F5F012F27E0AE0116
:1029D0004F5F5F4F0E94A117BC018981982F9970AA
:1029E000913009F44EC09BE2E1FC04C09E2D917031
:1029F000E0FC49C05E2D5071E82FE87083FF55C0A0
:102A000084E0911101C083E0EF2DE81B8F1508F0E1
:102A1000E0E0D6018E2F20E25523C9F1992329F059
:102A2000D6019C93C60101966C0196012D5F3F4F24
:102A3000E2FE33C08EE4D6018C9391E411969C9310
:102A4000119712968C93D9018E2F90E281112AC092
:102A5000E20FF32FF11D10828EEF9FEF29960FB634
:102A6000F894DEBF0FBECDBFDF91CF911F910F91C4
:102A7000FF90EF90DF90CF90BF90AF909F908F909E
:102A800008959DE2B7CF90E2B5CF2D93815081118B
:102A9000FCCFCE0ED11CE0E0C1CF8EE6D6018C93E8
:102AA00091E6CCCF9D938150D1CF482F447082FFC7
:102AB0003DC084E0911101C083E08F1510F4EF2D2B
:102AC000E81BD6018E2F20E2552309F1992329F026
:102AD000D6019C93C60101966C0196012D5F3F4F74
:102AE000E2FE1BC089E4D6018C938EE411968C9390
:102AF000119786E412968C93D9018E2F90E2882349
:102B000009F4A6CF9D938150FACF2D938150811166
:102B1000FCCFCE0ED11CE0E0D9CF89E6D6018C9354
:102B20008EE611968C93119786E6E4CF9B0177FF92
:102B300002C030E020E0A1E0B0E0911102C0B0E0BE
:102B4000A0E0F9013196AE0FBF1F8B2C912CBB205A
:102B500009F461C05401EFEFAE1ABE0AAA0DBB1D05
:102B6000FA161B0619F014F04F2D4A1B511188C09C
:102B7000E3FC59C07601A42FB0E2A1114FC0C40EEE
:102B8000D11C992309F45BC040E0D6011196F601EF
:102B900090836D01552309F448C0012F060F9A81D7
:102BA000582F507184FF03C0913309F4015010165F
:102BB0000CF047C0093008F008E0EEE2FE2E5B01A1
:102BC000A01AB10885019194819491082F3F320792
:102BD00029F4D601FC92F60131966F016217730752
:102BE00094F1021713077CF5DB01A21BB30BAA2497
:102BF000A394B12CAC0EBD1EAA0DBB1D11968C91D9
:102C000021503109D601119628153905F4F0F60145
:102C100080836D01DBCFB12CA12CA0CFF701B19344
:102C20007F01A150AACF9111B0CFD601942F50E3CC
:102C300002C05D9391509111FCCFC40ED11C40E0B5
:102C4000ACCF01E0BACF80E3DBCF6217730731F47A
:102C5000963388F4953311F4552369F0F601808397
:102C6000FD01842F90E2811108C0A40FB11D1C92B8
:102C700090E080E0F3CE81E3F1CF91938150F3CFE8
:102C8000911183CF8ACF8F929F92AF92BF92CF92B2
:102C9000DF92EF92FF920F931F93CF93DF935C012C
:102CA0007B016115710519F0DB018D939C93850102
:102CB0000F5F1F4FF501D0818D2F90E00E94791892
:102CC0006C01892BB9F5DD32B9F50F5F1F4FD501C6
:102CD0001196DC91C1E05801F1E0AF1AB10843E070
:102CE00050E068E872E0C5010E948218892B69F5FE
:102CF000680182E0C80ED11C45E050E063E872E054
:102D0000C6010E948218892B21F4680197E0C90E40
:102D1000D11CE114F10419F0D701CD92DC9260E0EE
:102D200070E080E89FEFC111FFC060E070E080E8D4
:102D30009FE7FAC05801BBCFDB3229F485010E5F53
:102D40001F4FF501D181C0E0C6CF43E050E060E8FD
:102D500072E0C5010E948218892BE9F0F80110E0A9
:102D600000E020E030E0A9015F01B0ED8B2E8D0E78
:102D700089E08815C8F19C2E689491F88C2F887092
:102D8000C2FF16C0811102C00F5F1F4F3196D501DF
:102D9000DC91C92DE9CFE114F10429F00E5F1F4F3A
:102DA000F7011183008360E070E080EC9FE7BCC016
:102DB000882311F001501109A5E0B0E00E94D1195B
:102DC0009B01AC01220F331F441F551F280D311DDD
:102DD000411D511D283999E93907490799E15907DA
:102DE000A8F2C6609C2ED2CFAEEF8A1206C0C3FDF9
:102DF0003CC09C2E689493F8C9CFDF7DD534A9F5EB
:102E000080818D3239F4C061DF011296818162E0E8
:102E100070E006C0DF018B32C1F3119661E070E013
:102E200080535D01A61AB70A8A30F8F4E0E8CE169E
:102E3000ECE0DE065CF4B601660F771F660F771FC5
:102E4000C60ED71ECC0CDD1CC80ED11C5D01FFEFD9
:102E5000AF1ABF0A8C9180538A30A8F1C4FF03C017
:102E6000D194C194D1080C0D1D1DC1FF09C0E114FE
:102E7000F10431F081E0A81AB108D701AD92BC92FB
:102E8000CA01B9010E94AF18C370C33009F4905849
:102E90004B015C0120E030E0A9010E94AA188823C0
:102EA00009F440C0C7EBD2E017FF05C011950195AA
:102EB0001109CFE9D2E06E01B8E1CB1AD10880E266
:102EC000E82EF12C0FC0D501B1CFFE01259135912F
:102ED000459154910E191F09C501B4010E941019A2
:102EE0004B015C01D501C4010E151F0574F7249731
:102EF000F594E794CC16DD06A9F78A2F880F8B2F5F
:102F0000881F8F3F49F020E030E0A901C501B401DE
:102F10000E94AA18811106C082E290E090938B046F
:102F200080938A04C501B401DF91CF911F910F9165
:102F3000FF90EF90DF90CF90BF90AF909F908F90D9
:102F40000895283008F027E03327DA01990F311D62
:102F500087FD916000966105710539F432602E5F3E
:102F60003D9330E32A95E1F708959F3F30F0803894
:102F70007105610509F03C5F3C5F3D93913008F0BD
:102F80008068911DDF93CF931F930F93FF92EF9271
:102F9000192F987F9695E92F96959695E90FFF271B
:102FA000EB5EFC4F99273327EE24FF24A701E701AE
:102FB00005900894079428F4360FE71EF81E491F61
:102FC000511D660F771F881F991F0694A1F7059062
:102FD000079428F4E70EF81E491F561FC11D770FEE
:102FE000881F991F661F0694A1F70590079428F47F
:102FF000F80E491F561FC71FD11D880F991F661F46
:10300000771F0694A1F70590079420F4490F561FE7
:10301000C71FD81F990F661F771F881F0694A9F72F
:1030200084911095177041F0D695C795579547959F
:10303000F794E7941A95C1F7EBEBF2E068941590DA
:10304000159135916591959105907FE27395E11801
:10305000F10A430B560BC90BD009C0F7E10CF11E66
:10306000431F561FC91FD01D7EF4703311F48A957B
:10307000E6CFE894015030F0080F0AF40027021759
:1030800008F4202F2395022F7A3328F079E37D93DB
:103090002A95E9F710C07D932A9589F606949795AD
:1030A0006795379517951794E118F10A430B560B5E
:1030B000C90BD00998F023957E9173957A3308F067
:1030C00070E37C932013B8F77E9170617D9330F0AC
:1030D000839571E37D9370E32A95E1F71124EF90D6
:1030E000FF900F911F91CF91DF91992787FD9095C8
:1030F000089591110C947D19803219F089508550F2
:10310000C8F70895FB01DC014150504088F08D91D3
:1031100081341CF08B350CF4805E659161341CF0B9
:103120006B350CF4605E861B611171F3990B089589
:10313000881BFCCFDC01FC01672F71917723E1F73D
:10314000329704C07C916D9370836291AE17BF0774
:10315000C8F308950E94EC1808F481E00895E894FB
:1031600009C097FB3EF490958095709561957F4FCF
:103170008F4F9F4F9923A9F0F92F96E9BB2793957D
:10318000F695879577956795B795F111F8CFFAF48D
:10319000BB0F11F460FF1BC06F5F7F4F8F4F9F4FBE
:1031A00016C0882311F096E911C0772321F09EE81C
:1031B000872F762F05C0662371F096E8862F70E082
:1031C00060E02AF09A95660F771F881FDAF7880F5C
:1031D0009695879597F90895990F0008550FAA0BB2
:1031E000E0E8FEEF16161706E807F907C0F012161A
:1031F0001306E407F50798F0621B730B840B950B1D
:1032000039F40A2661F0232B242B252B21F4089571
:103210000A2609F4A140A6958FEF811D811D08950E
:103220000E9423190C9497190E94891938F00E9462
:10323000901920F0952311F00C9480190C948619A4
:1032400011240C94CB190E94A81970F3959FC1F317
:10325000950F50E0551F629FF001729FBB27F00D44
:10326000B11D639FAA27F00DB11DAA1F649F662799
:10327000B00DA11D661F829F2227B00DA11D621FE8
:10328000739FB00DA11D621F839FA00D611D221FA2
:10329000749F3327A00D611D231F849F600D211D86
:1032A000822F762F6A2F11249F5750409AF0F1F009
:1032B00088234AF0EE0FFF1FBB1F661F771F881F72
:1032C00091505040A9F79E3F510580F00C94801911
:1032D0000C94CB195F3FE4F3983ED4F38695779531
:1032E0006795B795F795E7959F5FC1F7FE2B880F18
:1032F000911D9695879597F90895992788270895A0
:1033000097F99F6780E870E060E008959FEF80EC98
:10331000089500240A94161617061806090608953B
:1033200000240A9412161306140605060895092EA1
:103330000394000C11F4882352F0BB0F40F4BF2B10
:1033400011F460FF04C06F5F7F4F8F4F9F4F089550
:1033500057FD9058440F551F59F05F3F71F0479546
:10336000880F97FB991F61F09F3F79F0879508952B
:10337000121613061406551FF2CF4695F1DF08C04A
:10338000161617061806991FF1CF86957105610567
:1033900008940895E894BB2766277727CB0197F90F
:1033A00008950E94DC19A59F900DB49F900DA49FD5
:1033B000800D911D11240895A29FB001B39FC001FB
:1033C000A39F700D811D1124911DB29F700D811D51
:1033D0001124911D08959F939F770E94451B0F9084
:1033E000002042F49058A2EA2AED3FE049E450E47C
:1033F0000E94141A0C9497195058BB27AA270E94B0
:10340000141A0C9497190E94891938F00E94901987
:1034100020F039F49F3F19F426F40C9486190EF429
:10342000E095E7FB0C948019E92F0E94A81958F346
:10343000BA17620773078407950720F079F4A6F599
:103440000C94CA190EF4E0950B2EBA2FA02D0B0187
:10345000B90190010C01CA01A0011124FF27591BD9
:1034600099F0593F50F4503E68F11A16F040A22FDF
:10347000232F342F4427585FF3CF46953795279550
:10348000A795F0405395C9F77EF41F16BA0B620B4F
:10349000730B840BBAF09150A1F0FF0FBB1F661F96
:1034A000771F881FC2F70EC0BA0F621F731F841FD9
:1034B00048F4879577956795B795F7959E3F08F0FF
:1034C000B0CF9395880F08F09927EE0F97958795C1
:1034D0000895DF93DD27B92FBF7740E85FE3161625
:1034E000170648075B0718F4D92F0E94D01B9F933B
:1034F0008F937F936F930E94591CE4EEF0E00E943B
:10350000651B0E9497192F913F914F915F910E94E7
:103510002319DD2351F09058A2EA2AED3FE049EC4F
:103520005FE3D0785D270E94141ADF910C949719FD
:103530000E948E1BE3950C94B71B0E94B11A0C9449
:1035400097190E94901958F00E94891940F029F4A7
:103550005F3F29F00C94801951110C94CB190C94F5
:1035600086190E94A81968F39923B1F3552391F3A2
:10357000951B550BBB27AA2762177307840738F0E2
:103580009F5F5F4F220F331F441FAA1FA9F335D03F
:103590000E2E3AF0E0E832D091505040E695001CF3
:1035A000CAF72BD0FE2F29D0660F771F881FBB1FAD
:1035B000261737074807AB07B0E809F0BB0B802D8B
:1035C000BF01FF2793585F4F3AF09E3F510578F0B7
:1035D0000C9480190C94CB195F3FE4F3983ED4F31C
:1035E000869577956795B795F7959F5FC9F7880F8B
:1035F000911D9695879597F90895E1E0660F771FDD
:10360000881FBB1F621773078407BA0720F0621B6D
:10361000730B840BBA0BEE1F88F7E09508950E9498
:10362000161B6894B1110C94CB1908950E94B0191F
:1036300088F09F5798F0B92F9927B751B0F0E1F073
:10364000660F771F881F991F1AF0BA95C9F714C023
:10365000B13091F00E94CA19B1E008950C94CA19D2
:10366000672F782F8827B85F39F0B93FCCF386955C
:1036700077956795B395D9F73EF4909580957095B9
:1036800061957F4F8F4F9F4F0895DF93CF931F9387
:103690000F938B01EC01E1E1F1E00E94651B0E94B8
:1036A00097199801AE018B01EC0160E070E080E8B1
:1036B0009FE30E94FC190E94191C9801AE010F9112
:1036C0001F91CF91DF910C942319DF93CF931F9318
:1036D0000F93FF92EF92DF927B018C01689406C0FA
:1036E000DA2EEF010E942319FE01E894A59125919D
:1036F000359145915591A6F3EF010E94141AFE01F0
:103700009701A801DA9469F7DF90EF90FF900F918D
:103710001F91CF91DF9108950C9486190E94B019E2
:10372000D8F3E894E0E0BB279F57F0F02AED3FE0A4
:1037300049EC06C0EE0FBB0F661F771F881F28F0ED
:10374000B23A62077307840728F0B25A620B730B10
:10375000840BE3959A9572F7803830F49A95BB0FF5
:10376000661F771F881FD2F790480C945F1CEF9359
:10377000E0FF07C0A2EA2AED3FE049EC5FEB0E94C0
:10378000141A0E9497190F90039401FC9058E9E3D2
:10379000F1E00C94721C0E94EC1808F48FEF08956D
:1037A0009B01AC0160E070E080E89FE30C949D1AFF
:1037B0000E94B01958F19E5760F19851A0F0E9F0BD
:1037C000983020F5092E9927660F771F881F991FBB
:1037D0000A94D1F712C0062E672F782F8827985F9A
:1037E00011F4000C07C0993FB4F38695779567955F
:1037F0009395D9F7611D711D811D3EF490958095BB
:10380000709561957F4F8F4F9F4F089568940C94EA
:10381000CB190C94CA199F930E948E1B0F9007FC22
:10382000EE5F0C94B71B19F416F40C9486190C94E3
:103830005D1C0E94B019B8F39923C9F3B6F39F57E2
:10384000550B87FF0E946B1C0024A0E640EA900104
:1038500080585695979528F4805C660F771F881FCF
:1038600020F026173707480730F4621B730B840BD0
:10387000202931294A2BA695179407942025312514
:103880004A2758F7660F771F881F20F0261737073B
:10389000480730F4620B730B840B200D311D411D62
:1038A000A09581F7B901842F9158880F9695879537
:1038B00008959B01AC010C9410199F3F31F0915079
:1038C00020F4879577956795B795880F911D969504
:1038D000879597F9089591505040660F771F881F7C
:1038E000D2F708959F938F937F936F93FF93EF93F6
:1038F0009B01AC010E941019EF91FF910E94651B82
:103900002F913F914F915F910C941019052E97FBC9
:103910001EF400940E949D1C57FD07D00E94AD1C10
:1039200007FC03D04EF40C949D1C509540953095A7
:1039300021953F4F4F4F5F4F08959095809570951B
:1039400061957F4F8F4F9F4F0895EE0FFF1F881F88
:103950008BBF0790F691E02D1994A1E21A2EAA1BB5
:10396000BB1BFD010DC0AA1FBB1FEE1FFF1FA2172F
:10397000B307E407F50720F0A21BB30BE40BF50B2C
:10398000661F771F881F991F1A9469F760957095B5
:10399000809590959B01AC01BD01CF0108950F93D7
:1039A0001F93CF93DF938230910510F482E090E073
:1039B000E0918E04F0918F0430E020E0B0E0A0E0D0
:1039C000309799F42115310509F44AC0281B390BA9
:1039D00024303105D8F58A819B816115710589F103
:1039E000FB0193838283FE0111C0408151810281DA
:1039F000138148175907E0F04817590799F41097B1
:103A000061F012960C93129713961C933296CF0185
:103A1000DF91CF911F910F91089500938E04109321
:103A20008F04F4CF2115310551F04217530738F0B8
:103A3000A901DB019A01BD01DF01F801C1CFEF014E
:103A4000F9CF90938F0480938E04CDCFFE01E20FC7
:103A5000F31F819391932250310939832883D7CF63
:103A600020918C0430918D04232B41F4209102028B
:103A70003091030230938D0420938C042091000236
:103A8000309101022115310541F42DB73EB7409127
:103A9000040250910502241B350BE0918C04F09137
:103AA0008D04E217F307A0F42E1B3F0B28173907EC
:103AB00078F0AC014E5F5F4F2417350748F04E0F8A
:103AC0005F1F50938D0440938C04819391939FCFFB
:103AD000F0E0E0E09CCFCF93DF930097E9F0FC01AA
:103AE000329713821282A0918E04B0918F04ED015F
:103AF00030E020E01097A1F420813181820F931FE4
:103B000020918C0430918D042817390709F061C089
:103B1000F0938D04E0938C04DF91CF910895EA0136
:103B2000CE17DF07E8F54A815B819E0141155105FB
:103B3000B1F7E901FB83EA8349915991C40FD51F7D
:103B4000EC17FD0761F4808191810296840F951F27
:103B5000E90199838883828193819B838A83F0E042
:103B6000E0E012968D919C9113970097B9F52D91F5
:103B70003C911197CD010296820F931F20918C04E6
:103B800030918D042817390739F6309751F5109286
:103B90008F0410928E04B0938D04A0938C04BCCF3C
:103BA000D383C28340815181840F951FC817D907E1
:103BB00061F44E5F5F4F88819981480F591F51838F
:103BC00040838A819B81938382832115310509F08B
:103BD000B0CFF0938F04E0938E049ECFFD01DC0103
:103BE000C0CF13821282D7CF4F925F926F927F9293
:103BF0008F929F92AF92BF92CF92DF92EF92FF92FD
:103C00000F931F93CF93DF938C01009799F4CB010F
:103C1000DF91CF911F910F91FF90EF90DF90CF90A8
:103C2000BF90AF909F908F907F906F905F904F90DC
:103C30000C94CF1CFC01E60FF71F9C0122503109A8
:103C4000E217F30708F4AEC0D901CD91DC911197CA
:103C5000C617D70720F1C530D10578F0CE010497FB
:103C60008617970750F0C61BD70B2297C193D193A5
:103C70006D937C93CF010E946B1DC801DF91CF91A2
:103C80001F910F91FF90EF90DF90CF90BF90AF907A
:103C90009F908F907F906F905F904F9008955B0101
:103CA000AC1ABD0A4C018C0E9D1EA0918E04B091E1
:103CB0008F04512C412CF12CE12C109731F580917F
:103CC0008C0490918D048815990509F05CC0461606
:103CD000570608F058C080910002909101020097A9
:103CE00041F48DB79EB74091040250910502841BA8
:103CF000950BE817F90708F055C0F0938D04E09391
:103D00008C04F90171836083B8CF8D919C911197D8
:103D100012966C90129713967C901397A815B9057C
:103D200059F56C0142E0C40ED11CCA14DB0420F129
:103D3000AC014A195B09DA011296159780F062828C
:103D4000738251834083D9016D937C93E114F10414
:103D500071F0D7011396FC93EE9312978ECF2296B3
:103D60008C0F9D1FF90191838083F301EFCFF093B6
:103D70008F04E0938E0481CF4816590608F42C0175
:103D80007D01D3019ACFCB010E94CF1C7C0100970B
:103D900049F0AE01B8010E94D51EC8010E946B1DFA
:103DA00087016BCF10E000E068CFFB01DC0102C0AF
:103DB00001900D9241505040D8F70895FB01DC016D
:103DC0008D91019080190110D9F3990B0895FB0191
:103DD000DC0101900D920020E1F7089512E0CFE59B
:103DE000D2E000E006C0802FFE010E94A51C2196B3
:103DF000011DC036D10780E00807A9F7F894FFCF6E
:103E000000009004800000000000DF04AB0497086D
:103E1000560ACC06440682062E06FC05DB05A705DD
:103E200086053005FD04000000000D045E03A403B8
:103E30005A04D503B303C7030D0A004730004731C6
:103E4000004D3130360076002053696D706C65206E
:0C3E50004720636F6465004F4B210000A9
:00000001FF
